:10400000007F00206D4700005D460000694700000A
:1040100069470000694700006947000069470000E0
:1040200000000000000000000000000069470000E0
:104030006947000000000000694700006947000070
:104040000000000000000000000000000000000070
:104050000000000000000000000000000000000060
:104060000000000000000000000000000000000050
:104070000000000000000000000000000000000040
:104080000000000000000000000000000000000030
:104090000000000000000000000000000000000020
:1040A0000000000000000000000000000000000010
:1040B0000000000000000000000000000000000000
:1040C00010B5054C237833B9044B13B10448AFF352
:1040D00000800123237010BD1802002000000000A2
:1040E00000E6000008B5034B1BB103490348AFF3DA
:1040F000008008BD000000001C02002000E6000057
:1041000008B5054B187802F091FA044B003018BF3F
:104110000120187008BD00BF0000002034020020FC
:1041200070B5124C124E21783278124D914202D065
:1041300002F074FB286002F071FB2B68C01A322871
:1041400012D90D4A2378117899420DD013703BB9DA
:104150000D20012102F05EFA01202378337070BD3A
:1041600000210D2002F056FA0020F6E7340200206C
:104170003C020020400200200400002010B50F4C3B
:104180000F49236886B0013303A8236002F08FF93A
:104190000A222168684602F0A9F9694603A802F0DC
:1041A000D8F90146074802F02DF9684602F034F9C3
:1041B00003A802F031F906B010BD00BF380200209C
:1041C00078D700008002002008B5FFF799FFFFF7BD
:1041D000A7FF18B1BDE80840FFF7D0BF08BDFFFF3B
:1041E00008B501210D2002F0FDF9064B02211878D7
:1041F00002F0F8F94FF4E1310348BDE8084001F05E
:1042000047BC00BF000000208002002008B502F07B
:10421000BDFA002008BD704737B5FFF7FCFF01214C
:104220000D2002F0DFF900210D2002F0F3F96846BD
:104230000722032102F004FBBDF800301C4CC3F33D
:1042400084130125684607220521E55402F0F8FA97
:10425000BDF80030C3F38413684607220621E554F5
:1042600002F0EEFABDF80030C3F38413684607226B
:104270000921E55402F0E4FABDF80030C3F38413D9
:10428000684607220A21E55402F0DAFABDF8003048
:10429000C3F3841307220B216846E55402F0D0FAD9
:1042A000BDF80030C3F38413E55403B030BD00BF44
:1042B000460200200B0A1B0153FA81F1034B53F80D
:1042C0002130C3F3400313700020704700080440FE
:1042D000C8B20123834098B252B10023090A4901B0
:1042E00001F1804101F5802103438B60002070477C
:1042F0001B041046F2E700BFF8B500283BD0096860
:104300001E4F4FF0000C01EBC00066464FF0010E4F
:104310008D8840F2024295424FF000030BD10C68A9
:104320000EFA03F204F0B854D2B2B4F1807F0CBF9D
:10433000164342EA0C0C0133032B06D037F8132046
:104340009542ECD00133032BF8D108318142DFD103
:104350006FEA0C0C5FFA8CF4012000F0DFF9084BD7
:1043600093F8BB241643264083F8BB640120BDE8C4
:10437000F84000F0A3B90646FF24EDE7CCD90000D1
:1043800000E00140F0B585B004AB02A843F80C0D85
:1043900001260C46304619461546ADF80C400292EF
:1043A000ADF80060FFF7A8FFEFF3108186F31088E7
:1043B0001B4B1A681AB91B484026C270C6701A688F
:1043C00001321A6081F31088200AEA03E4B24FEA4E
:1043D00000100BD50119144A52F8217025F48036CB
:1043E0006FF3104742F8217042F8216020440E4AD2
:1043F00042F82050EFF31082012181F310881968F0
:1044000011B11968013919601B681BB90549802071
:10441000CB70C87082F31088002005B0F0BD00BFDB
:10442000A80A0020000D04400008044070B582B0C6
:10443000EFF30384103C164B164964B253F8242062
:10444000567995688B5D03F00303032B0FD0C034BE
:1044500051F824306FF3104341F824302DB102A8F5
:10446000D36840F8083D0196A84702B070BD2DB151
:1044700002A8D36840F8083D0196A847C034054B10
:1044800053F824206FF3104243F8242002B070BD8B
:10449000AC0A0020006000400C4A92F8363063B14C
:1044A0000A4A92F8A030D906FBD4084982F8A00045
:1044B00091F8A030DB06FBD4704792F83C30DB0764
:1044C000EED492F83C30DB07F7D5E9E700E0014095
:1044D000064B074993F826001A6A51F8203005491F
:1044E000C2F30262D3400B60704700BF00E001409E
:1044F000FC010020340B002070B5374C374B384896
:10450000384A6260384900224AF20355A3F8FE5344
:10451000A0F8002121604FF4004193F82600E260EA
:104520006261A1602161196A54F820202F4DC1F306
:104530000261CA40082009212A6083F8130483F825
:10454000A21093F88024002A3BD0244B002083F84B
:10455000810483F8800493F8A030002B39D11F4BDD
:10456000002283F8362093F83C20D207FBD50121A6
:1045700000201F4A83F8311083F826001A6293F84E
:104580002620186A54F82220154CC0F30260C2405D
:104590002A60042684224FF4254083F83E6083F885
:1045A0003E2083F8D0102246A3F8FE03A4F804119D
:1045B000B2F804319BB2002BFAD10123A2F80031EA
:1045C00070BD012183F8801440F2C44000F018F857
:1045D000BBE7FFF761FFC2E7FC01002000E00140FC
:1045E00000C0014000127A00006CDC02340B002095
:1045F00000010110A0F101000028FBD1704700BFAD
:10460000144B70B401FB00F14FF47A761B6812482A
:10461000B0FBF3F0A1FB064500234FF0FF32AB42A5
:1046200008BFA24206D3B4FBF0F0800880B170BC92
:10463000FFF7E0BF8000B1FBF0F0A0FB06018B426A
:1046400008BF8242F2D24FF0FF3070BCFFF7D2BFFA
:1046500070BC7047340B002000CA9A3B0B4B70B5FE
:10466000B3F840510A4E0024ADB225FA04F3DB073B
:10467000E0B203D556F8243003B198470134102C2A
:10468000F3D1024BA3F8305170BD00BF0060004071
:10469000680A0020074830B4074D00F120040346A3
:1046A0001A1A13F8011BC032A34245F82210F7D1A1
:1046B00030BC70478FDA000000600040EFF31081DB
:1046C000012383F31088124B33F8102092B22AB1E1
:1046D00033F81020013A92B223F8102033F810304A
:1046E0009BB28BB90B4A10B40B4CB2F8FE3334F8C2
:1046F000100043F4254323EA0003A2F8FE3381F3BC
:1047000010885DF8044B704781F31088704700BF34
:104710002C0B002000E00140D4D9000030B4EFF3AE
:104720001081012383F310880C4A32F810309BB2B9
:1047300053B90B4C0B4DB4F8FE3335F8105043F41D
:1047400025432B43A4F8FE3332F8103001339BB2DB
:1047500022F8103081F3108830BC70472C0B0020F9
:1047600000E00140D4D9000000BE704708B500F059
:1047700005F8FFF74BFDFEE7704700BF70B5434AF1
:10478000434B444C4FF470054AF202500121C2F8E9
:10479000885082B09460A3F8FE031A4683F81F1471
:1047A00092F8B134DB06FBD500204FF425460446D1
:1047B000A2F8FE63FFF7E0FFFFF79EFE8DF80740CB
:1047C00001209DF80730FFF7A9FFEFF310820125C4
:1047D00085F31088304B996821F000419960996801
:1047E00082F310882D4A1168C1F300018DF807107B
:1047F0001168C1F300018DF807101268C2F30002BE
:104800008DF80720EFF3108285F31088996841F046
:10481000004199609B6882F310882846FFF74EFF9D
:104820002846FFF7A9FF1E4B1E499C801E801E4E86
:104830009E601E481E4E1F4ADE604FF48056A1F84F
:104840002061121A9D80214606F0A2F91A481B4ADF
:104850001B491C4D121A06F077F91B4B5B1BA34238
:104860004FEAA30605DD013455F8043B9847A642FC
:10487000F9DCFFF72DFE0220FFF77EFFFFF70AFFAE
:10488000002002B0BDE8704000F020B800ED00E06C
:1048900000E0014000400000FC6F044000080440BC
:1048A000000D004000600040007B00201802002046
:1048B000007F00203C0B002000000020FC010020B5
:1048C0000CE60000DC010020F0010020704700BF72
:1048D000064B074A1B6A1268C3F3026123FA00F011
:1048E0008A4000F0070022FA00F0704700E0014023
:1048F000340B002000220270C0E9012280F835202C
:10490000DF2282777047FFFF2DE9F047044600263B
:104910001F469DF82830067021730375089B0361BC
:10492000099B83610B9B03620C9BDFF82C81C0E920
:104930000936FF23894643771546002A3ED184F87D
:104940003520502002F071FB4FF6FF73A0F8423083
:1049500000F1200ADF2380F8205080F8215080F8F1
:10496000225080F82350C0E90955C562C0E90E55B0
:10497000C0E90C5580F8443080F8453080F840504C
:1049800080F84150C0E91255C4F828A020222946D9
:10499000064606F0FDF8072FA66050D82C4AB9F15C
:1049A000020FD35D114638D098F8000000284CD192
:1049B000002B44D102232777D3553EE0012A3ED174
:1049C00084F83520242002F030FB8378067066F3EB
:1049D000020383704378C57003F0F80366F306138F
:1049E000012F4370067146718671A062606026D8FF
:1049F000184BB9F1020FDA5D194602D098F80000A1
:104A000028B1012A1BD802232777CB5515E0B2B96C
:104A10000222DA552777257011E0012BF3D9277789
:104A2000384601F06BFC3022816A504606F08CF863
:104A3000384601F063FC036BA3610123237000235C
:104A400088F800302078BDE8F087012BDAE700BF56
:104A500046020020440200204E0200202DE9F84FBB
:104A60002DED028B90F8355004468A46002D40F01B
:104A700098802846FFF72CFF07EE900AB8EE678A69
:104A800028EE008A18EE100A02F060FC80465046BC
:104A9000894602F039FC06460F4602460B46404660
:104AA000494602F01DFF30B1BCEEC88A84ED0B8A86
:104AB00084F8345071E00022624B4046494602F0CF
:104AC0009DFC82468B4602460B463046394602F034
:104AD00025FF40B15046594602F040FF0223E062F4
:104AE00084F8343059E00022574B4046494602F0E2
:104AF00085FC82468B4602460B463046394602F01C
:104B00000DFF30B15046594602F028FF0423E06201
:104B1000E6E700224D4B4046494602F06FFC8246D4
:104B20008B4602460B463046394602F0F7FE30B15E
:104B30005046594602F012FF0623E062D0E70022F9
:104B4000434B4046494602F059FC82468B4602469A
:104B50000B463046394602F0E1FE30B15046594628
:104B600002F0FCFE0823E062BAE70022394B40461F
:104B7000494602F043FC8046894602460B463046D1
:104B8000394602F0CBFE30B14046494602F0E6FE1F
:104B90000A23E062A4E700232370BDEC028BBDE88A
:104BA000F88F012DF9D10820FFF792FE07EE900A49
:104BB000B8EE678A28EE008A18EE100A02F0C6FBEB
:104BC000064650460F4602F09FFB80468946024645
:104BD0000B463046394602F083FE28B1BCEEC88A47
:104BE000002384ED0B8A7BE700221B4B30463946BD
:104BF00002F004FC82468B4602460B46404649467C
:104C000002F08CFE28B15046594602F0A7FEE06241
:104C10004EE700224FF07F533046394602F0EEFB5C
:104C200006460F4602460B464046494602F076FECF
:104C30000028B0D03046394602F090FE0323E062EF
:104C40004EE700BF0000D03F0000B03F0000903FA3
:104C50000000703F0000503F0000E03FF0B52DED38
:104C6000028B1D460123F7EE007A9D4287B0044671
:104C70000E461746B0EE608A037087EE800A3DD874
:104C800090F83530002B39D14FF0FF31FFF7E6FEB9
:104C9000B5EEC08AF1EE10FA34DBDFED1C7AB4EE2B
:104CA000E78AF1EE10FA2DD8D4ED0B7AF8EE677A98
:104CB00067EE887A17EE900A02F048FB0022144B48
:104CC00002F0C6FC02F04AFE206323788BB10F9BF2
:104CD00004930E9B039394F834300293236B019357
:104CE000E36A00933A462B4631462046FFF70CFE16
:104CF0002070207807B0BDEC028BF0BD4FF6FF713D
:104D00002046C3E700232370DFE700BF0000C8424E
:104D10000000594007B590F835303BB969468068C6
:104D200004F0FEFE009803B05DF804FB012B05D1F2
:104D300040686946083005F00BFCF3E70020F2E715
:104D40001FB590F835303BB901A9806804F0C6FE64
:104D5000029805B05DF804FB012B05D1406801A95C
:104D6000083005F08FFBF3E70020F2E738B590F844
:104D7000353004468BB9806808B9002038BD04F18D
:104D80000C0104F079FF0546A06804F08FFE0E2D9B
:104D900001D0002DF1D10120F0E7012BEDD14068C9
:104DA0000028EAD004F10C01083005F0AFFA0546FE
:104DB0006068083005F05CFBE9E708B590F835302D
:104DC0003BB9806820B104F06BFEB0FA80F0400976
:104DD00008BD012B06D140680028F9D0083005F045
:104DE00025FBF2E70020F3E708B590F835303BB932
:104DF000806820B104F0E4FEB0FA80F0400908BDFC
:104E0000012B06D140680028F9D0083005F0B2FB2C
:104E1000F2E70020F3E7FFFF38B50446FFF7E4FFB1
:104E2000606838B1237F0C4A00252421D55402F054
:104E300025F96560A56875B1237F084AA86C002133
:104E4000D15410B1202102F019F95021284602F066
:104E500015F90023A36038BD44020020460200205B
:104E600010B50446FFF7D8FF204610BD00F1C00280
:104E70000A4B53F822106FF3104143F8221000F050
:104E80001F024009800000F1604000F561400123ED
:104E90009340C0F880310360704700BF006000405D
:104EA0004309012200F01F0002FA00F02033044AF7
:104EB00042F82300BFF34F8FBFF36F8F704700BFDF
:104EC00000E100E07047FFFF0028A7BF00F160404D
:104ED00000F5614000F00F00034BABBFC023C022C0
:104EE00080F800331A54704714ED00E038B50A4DCD
:104EF0002B78BFF35B8F13F001040BD1284602F02F
:104F0000A5F838B1054B28461C6002F0ABF8044800
:104F100001F03FFC014838BD50020020540200203F
:104F2000C54E00002AB9304BC031012243F8212080
:104F30007047012A03D1C0312B4B0222F6E7022A27
:104F400003D1C031284B0322F0E7032A03D1C0313B
:104F5000254B0422EAE7042A03D1C031224B052263
:104F6000E4E7052A03D1C0311F4B0622DEE7062AFB
:104F700003D1C0311C4B0722D8E7072A03D1C03127
:104F8000194B0822D2E7082A03D1C031164B092257
:104F9000CCE7092A03D1C031134B0A22C6E70A2AFB
:104FA00003D1C031104B0B22C0E70B2A03D1C03113
:104FB0000D4B0C22BAE70C2A03D1C0310A4B0D224B
:104FC000B4E70D2A03D1C031074B0E22AEE70E2AFB
:104FD00003D1C031044B0F22A8E70F2AA8D1C0315A
:104FE000014B1022A2E700BF0060004032B9C0317F
:104FF000074B1E2243F8212001207047012A05D1CA
:10500000C031034B212043F82100F5E70020704711
:10501000006000402AB9064BC031362243F82120F7
:105020007047012AFCD1C031014B3B22F6E700BF9B
:10503000006000402AB9064BC031352243F82120D8
:105040007047012AFCD1C031014B3A22F6E700BF7C
:10505000006000402AB9064BC031372243F82120B6
:105060007047012AFCD1C031014B3C22F6E700BF5A
:10507000006000402AB9064BC031382243F8212095
:105080007047012AFCD1C031014B3D22F6E700BF39
:10509000006000402AB90C4BC031992243F821200E
:1050A0007047012A03D1C031074B9F22F6E7022A3D
:1050B00003D1C031044BA422F0E7092AF0D1C0315A
:1050C000014BA922EAE700BF006000402AB90C4B5F
:1050D000C031982243F821207047012A03D1C03102
:1050E000074B9E22F6E7022A03D1C031044BA322CC
:1050F000F0E7092AF0D1C031014BA822EAE700BF4E
:10510000006000402AB90C4BC0319A2243F821209C
:105110007047012A03D1C031074BA022F6E7022ACB
:1051200003D1C031044BA522F0E7092AF0D1C031E8
:10513000014BAA22EAE700BF006000402AB90C4BED
:10514000C0319B2243F821207047012A03D1C0318E
:10515000074BA122F6E7022A03D1C031044BA62255
:10516000F0E7092AF0D1C031014BAB22EAE700BFDA
:10517000006000402AB9064BC031AE2243F821201E
:105180007047012AFCD1C031014BB322F6E700BFC2
:10519000006000402AB9064BC031AD2243F82120FF
:1051A0007047012AFCD1C031014BB222F6E700BFA3
:1051B000006000402AB9064BC031B12243F82120DB
:1051C0007047012AFCD1C031014BB622F6E700BF7F
:1051D000006000402AB9064BC031B02243F82120BC
:1051E0007047012AFCD1C031014BB522F6E700BF60
:1051F000006000402DE9F84FAD4B9E68054614460F
:10520000403672B6012940F08E80002A00F0988066
:105210009368213340F08580036812681A441F2A7E
:1052200000F213846268DFF8A48246F82320C033BA
:10523000332248F8232090F90000FFF731FE95F95A
:105240000030C03358F823206FF3104248F8232071
:1052500095F90000FFF738FE95F90000FFF706FE0C
:105260002B686168A3605A1CC1332A6046F822107B
:10527000342248F8232095F90000FFF711FE95F934
:105280000030C03358F823206FF3104248F8232031
:1052900095F90000FFF718FE95F90000FFF7E6FD0D
:1052A0002B6861685A1CC1332A6046F822103122EB
:1052B00048F8232095F90000FFF7F2FD95F900303A
:1052C000C03358F823206FF3104248F8232095F993
:1052D0000000FFF7F9FD95F90000FFF7C7FD2B6807
:1052E00061685A1CC1332A6046F82210322248F8FD
:1052F000232095F90000FFF7D3FD95F90030C03366
:1053000058F823206FF3104248F8232095F9000045
:10531000FFF7DAFD95F90000FFF7A8FD2B680133D0
:105320002B6001240CE002290ED14AB1936821338D
:10533000F7D10068146804441F2C8CBF002401249A
:1053400062B62046BDE8F88F032910D1002AF7D0B5
:1053500092F912302133E4D10E2353740168554B76
:10536000917446F82130127CFFF740FED6E70429FD
:1053700044D1002AE4D092F9073021332DD10C27F3
:10538000977101684C4BD17146F821301278FFF7C4
:1053900081FE0168494B013101606172277246F854
:1053A00021302278FFF7AEFE0168454B01310160E4
:1053B0006171277146F821302278FFF787FE016876
:1053C000404B01310160A772E17246F8213022782A
:1053D000FFF7B4FE03680133036094F90700FFF799
:1053E00045FD94F90900FFF741FD94F90500FFF729
:1053F0003DFD94F90B00FFF739FD92E7002940F0DD
:105400009480002A9CD0137A3BBB126892F90D302D
:1054100021331ED10C231373036853732A4A46F8B1
:105420002320C033294A262142F8231023686068CC
:1054300093F90D101B7B01F160421B0102F56142E3
:10544000DBB282F80033224B43F821002B68013392
:105450002B60236893F90D00CDE7012B3AD1126838
:1054600092F90F3021331ED10C2393730368D37349
:10547000154A46F82320C033144A272142F8231046
:105480002368606893F90F109B7B01F160421B0158
:1054900002F56142DBB282F800330D4B43F8210084
:1054A0002B6801332B60236893F90F00A3E700BF3B
:1054B00000ED00E0DDA500004D880000A98A000095
:1054C0002D890000E98A0000319000000060004052
:1054D000AC0A0020022B40F0B882126892F9113019
:1054E00021331ED10C23137403685374984A46F871
:1054F0002320C033974A282142F82310236860688C
:1055000093F911101B7C01F160421B0102F561420D
:10551000DBB282F80033904B43F821002B68013353
:105520002B60236893F9110065E7052964D1002AEF
:105530003FF406AF576892F808A00C237B7397F9E5
:105540000F30213349D10168844BF973524646F834
:105550002130FFF75FFD824C90F90030DFF8F881D1
:10556000E2184FF0C00982F80093016848F82370F0
:1055700001317C4B01605246B97346F82130FFF788
:1055800059FD90F90030E21882F80093016848F85C
:1055900023700131744B01605246397446F8213052
:1055A000FFF758FD90F90030E21882F80093016887
:1055B00048F8237001316D4B01605246797446F80A
:1055C0002130FFF757FD90F900301C4484F8009318
:1055D00048F8237003680133036097F90F00FFF761
:1055E00045FC97F90E00FFF741FC97F91000FFF713
:1055F0003DFC97F91100FEE606294FD1002A3FF441
:105600009FAE576892F808A00C237B7397F90F3070
:10561000213338D10168564BF973524646F8213090
:10562000FFF738FD4E4C90F90030DFF82C81E2187E
:105630004FF0C00982F80093016848F823700131E7
:105640004C4B01605246B97346F82130FFF73EFDDE
:1056500090F90030E21882F80093016848F823704E
:105660000131454B01605246397446F82130FFF74D
:1056700049FD90F900301C4484F8009348F82370E9
:1056800003680133036097F90F00FFF7EFFB97F909
:105690000E00FFF7EBFB97F91000ACE6072941D1AC
:1056A000002A3FF44DAE40F60C43138292F90D30C0
:1056B000213328D10168314B517346F821301278DB
:1056C000FFF7A8FC01682E4B01310160217346F8F9
:1056D00021302278FFF7AEFC01682A4B01310160CE
:1056E000A17346F821302278FFF7B4FC0168264BFD
:1056F00001310160E17346F821302278FFF7BAFCEE
:1057000003680133036094F90D00FFF7AFFB94F9D0
:105710000C00FFF7ABFB94F90E00FFF7A7FB94F921
:105720000F0068E6082933D1002A00F08E8192F933
:10573000023021337FF4F5AD0C2353700168134B15
:10574000917046F821301278FFF7ECFBE6E500BFD8
:105750009990000000600040AC0A00201198000001
:1057600000E100E0D9960000FD980000BD9900001E
:10577000A18D0000818D0000418F0000D1920000BA
:10578000B191000075930000099400002D440000C1
:10579000092974D1002A3FF4D3AD576897F9023034
:1057A000213361D192F808A00168A94BD2F800908A
:1057B000B9704FF0060B87F806B0524646F8213014
:1057C000FFF7D8FCA34C97F90220BB79DFF8B08231
:1057D000A1181B01DBB281F8003301689E4B48F829
:1057E0002290013101605246797087F805B046F881
:1057F0002130FFF7CFFC97F901207B79A1181B011D
:10580000DBB281F800330168944B48F822900131F3
:1058100001605246397187F808B046F82130FFF729
:10582000D9FC97F904203B7AA1181B01DBB281F85F
:10583000003301688A4B48F82290013101605246DA
:10584000F97087F807B046F82130FFF7B3FC97F9F5
:105850000320FB7914441B01DBB284F80033036896
:1058600048F822900133036097F90200FFF7FEFA2F
:1058700097F90100FFF7FAFA97F90400BBE50A2946
:1058800078D1002A3FF45CAD576897F90230213394
:1058900061D192F808A00168724BD2F80090B970FB
:1058A0004FF0060B87F806B0524646F82130FFF756
:1058B000F1FB684C97F90220BB79DFF8C481A1188D
:1058C0001B01DBB281F800330168674B48F8229076
:1058D000013101605246797087F805B046F82130F1
:1058E000FFF7F4FB97F901207B79A1181B01DBB2CC
:1058F00081F8003301685D4B48F822900131016066
:105900005246397187F808B046F82130FFF716FC87
:1059100097F904203B7AA1181B01DBB281F8003310
:105920000168534B48F82290013101605246F970EA
:1059300087F807B046F82130FFF7E4FB97F903201A
:10594000FB7914441B01DBB284F80033036848F888
:1059500022900133036097F90200FFF787FA97F965
:105960000100FFF783FA97F90400FFF77FFA97F930
:10597000030040E50B2968D1002A3FF4E1ACD2E9ED
:1059800000140C23237594F91530213352D1036888
:10599000384A637546F82320226822B9C033364A54
:1059A0004A2042F8230094F91500237D334F00F17B
:1059B000604202F561421B01DBB282F800332A68C3
:1059C0002F4B43F82010501C2860A07546F820701B
:1059D000206820B9C13228484D2740F8227094F938
:1059E0001670227D07F1604000F561401201D2B2CD
:1059F00080F800232A6843F82710501C214F2860A4
:105A0000E07546F82070206820B9C1321A484E2649
:105A100040F8226094F91760227D06F1604012017F
:105A200000F56140D2B280F8002343F826102B68BD
:105A300001332B6094F91500FFF718FA94F916005A
:105A4000FFF714FA94F91700D5E4002478E400BFB6
:105A5000D97D000000E100E04D7D00006D7F000079
:105A6000957E0000958B0000FD8B0000AD8C000042
:105A7000718C000079A00000006000404DA1000082
:105A8000AC0A002069A20000002070470120704786
:105A9000036840F213421B6A1847D0F82C322BB12E
:105AA000D0F82832184490F8240070474FF0FF30A7
:105AB000704713B5044690F8A8048DF8071070B12C
:105AC000002384F83C3401220DF1070104F58860BD
:105AD00002F0BAFA94F83C34002BFBD0012002B05B
:105AE00010BD0023C0F82432C0F82832C0F82C3290
:105AF000C0F83034C0F83434C0F8383400F5886069
:105B000002F022BB036813B962B6BFF36F8F704710
:105B10000268204B53F8223013B54BB10279042AA6
:105B200008D0802A01D0022A02D1012283F83C2425
:105B300002B010BDD3F82C22B2F5007FF8D0007A65
:105B4000EFF3108200920122019272B6019A013A9B
:105B5000511C1AD0D3F82C12B1F5007F02F1FF349A
:105B600011D0D3F82412194481F82400D3F8241258
:105B70000131C1F30801C3F82412D3F82C1201310A
:105B8000C3F82C12E3E72246E2E768460192FFF7EA
:105B9000B9FFCDE75802002013B5EFF3108300934F
:105BA0000123019372B6019B5A1E0192E3B1D0F812
:105BB0002C32B3B1D0F82832034493F82440D0F803
:105BC00028320133C3F30803C0F82832D0F82C324E
:105BD000013BC0F82C326846FFF794FF204602B024
:105BE00010BD4FF0FF34F6E76846FFF78BFF4FF02C
:105BF000FF34F3E738B5044600254FF47A70C4E962
:105C00000150A3611648049BE361C4E904122060BB
:105C100029464FF4007204F1240004F0B9FFC4F8DF
:105C200024524FF40072C4F828522946C4F82C526A
:105C300004F50C7004F0ACFFDF23C4F8305484F892
:105C4000A854C4F8345484F87734C4F8385484F829
:105C5000793484F8753484F87B34204638BD00BF2D
:105C6000E4D9000010B50C46FFF740F922460421A4
:105C7000BDE81040FFF7BEBAF0B50369002B85B050
:105C8000044602DA002005B0F0BD4269002AF9DBC3
:105C90008B42F7DA8A42F5DAD9B20022684602AEC0
:105CA00000F0CEFD0122217D304600F0C9FD00222A
:105CB0003DF812500021AB11002D45D036F81200EE
:105CC000002841D036F8110083EA9017FF063BD137
:105CD00003F01F0323620028D4D0092BD2DC15F473
:105CE000F04F23691C4E0CBF4FF080624FF0A06252
:105CF00036F8331010F4F04F42F4803217480CBFDE
:105D00004FF080654FF0A065FEF73CFB63691348D8
:105D100036F8331045F480352A46FEF733FBA36985
:105D20005A1C0FD0E26901320CD036F833100B4800
:105D30002A46FEF727FBE369084836F833102A465F
:105D4000FEF720FB01209EE701310329B4D1013287
:105D5000032AADD196E700BF90D80000280A0020A2
:105D6000664B2DE9F0410E461968C90804461546F0
:105D7000FFF782FF84F8A804002800F0BD8094F8A3
:105D800091145F4B226A6FF3010184F89114192179
:105D900043F82240A4F8921494F89034012184F836
:105DA00095140F2103F0E70384F89C144FF6FF715C
:105DB00043F04003A4F89E14A1696FF3820384F8B2
:105DC000903404F592670023013184F8943484F808
:105DD0009634C4F8987484F8A03405D0E169013190
:105DE0001CBF082184F8A01484F8702404F29442A3
:105DF000C4F88C2440F213424FF6FF71954284F8A8
:105E0000A23484F8A334A4F8A414C4F88834C4F8E1
:105E10008034C4F87C343ED02DD840F211429542F3
:105E200048D040F2124295424AD0364BC4F88434EE
:105E300004F58E6841462046FFF714FF94F8A83415
:105E4000184084F8A80401213B4640F6B832304699
:105E500002F026FC94F8931429B93B4640F6B83278
:105E6000304602F01DFC04F588654146284602F0E4
:105E7000D3F978B3FEE740F23242954225D040F2A2
:105E8000334295420FD040F231439D42CDD102239F
:105E900084F871340AE0022284F8712484F87234A0
:105EA00084F87334C1E7022284F8712484F87234D0
:105EB0000123F5E7022284F8712484F87224EFE7C5
:105EC000022284F871240322F7E7022384F8713454
:105ED0000323EBE73946284602F0F4F800B1FEE769
:105EE000C4F82402C4F82802C4F82C02C4F8300410
:105EF000C4F83404C4F83804BDE8F081C8D90000FF
:105F000058020020115B000030B58C18A14208D067
:105F1000D0F8603411F8015BDD701D796D07FCD598
:105F2000F4E7104630BD13B5EFF31083009301235F
:105F3000019372B6019B5A1E01923BB1D0F8084200
:105F40006846FFF7DFFD204602B010BD6846FFF748
:105F5000D9FD4FF0FF34F6E708B52430FFF7E3FF33
:105F600008BD10B500F50C742046FFF7DCFF0028D3
:105F7000FAD110BD07B54FF0FF3300931722162159
:105F80000248FFF737FE03B05DF804FB80020020F3
:105F9000F8B5094F054600240126AA6C06FA04F359
:105FA000134205D007EB440261B2284604F068FBB7
:105FB00001341D2CF1D1F8BD38070020837870B56D
:105FC000044683B90E4D2A68AAB103883BB90D482F
:105FD000FFF7DEFF2B682078BDE870401847012BE3
:105FE000F8D10948F4E7012B05D00A2B04D1074B5F
:105FF0001B68002BEFD170BD0B2BFCD1044BF7E7D6
:106000002C07002074070020D00700203007002054
:1060100034070020F0B5044685B0002843D00023A3
:1060200080F83230C1F38415836C012707FA05F23A
:106030001343836400F1300104F06EFC04AE04F1FC
:106040004801204604F024FB204604F00BFB06F830
:10605000047D9DF80C30012B04D13146204604F01C
:1060600007FBF6E70DF10E022946204604F008FB77
:106070000E4BBDF80E0093F83330052B9CBF0C4A35
:10608000D2560C4B1B684FF0010101FA03F388BF95
:1060900000220093002301FA02F2194600F078F979
:1060A00080B205B0F0BD4FF0FF30FAE77407002072
:1060B00010DA00000800002013B50A220C46C1B215
:1060C000684600F0BDFBBDF800205AB1064B0749F9
:1060D00002F4F040B0F5006F0CBF1846084622806D
:1060E00002B010BD1046FAE7D00700207407002068
:1060F000F0B5012680F82560C0E90F23022600F1E3
:106100002403002540F60C4780F826600186DF2630
:10611000032143644FF4C05380F8245080F8275083
:1061200080F8285080F8295080F82A6080F82B6089
:10613000878580F8325080F8331080F8345080F82A
:10614000355080F8366080F837600787C0E912550F
:10615000C0E91455A0F85850A0F85A30F0BD10B559
:106160000446406D10B1142100F088FF204610BD98
:1061700037B50D28044602A998BF0E34002321F834
:10618000023D2046FFF798FF074B05464FF40041BC
:1061900033F8340000F000FBBDF806102846FFF786
:1061A00039FF03B030BD00BF90D80000042838B5D7
:1061B00098BF0E4B0E4C94BF1D5C0025204604F08A
:1061C00073FB04F1300184F828502046094C04F098
:1061D000A3FB204604F068FB84F8285004F130014A
:1061E0002046BDE8384004F097BB00BF16DA000037
:1061F00074070020D00700202DE9F04D3A4B93F8AA
:106200002830192B2DED028B66D055D8012B60D08C
:10621000364CD4ED007AF5EE407AF1EE10FA48D122
:106220000020FFF7C3FF052000F0C6FA0FF2B00B05
:10623000DBE900AB9FED2E8ADFF8BC800A25142035
:10624000FFF796FF07EE900AF8EEE77A67EE887A96
:1062500017EE900A01F07AF852465B4601F0CEF84C
:10626000D8F800300646012098400F4601F05CF84F
:1062700002460B463046394601F0EAF906462068E8
:106280000F4601F063F802460B463046394600F0EF
:10629000FFFE01F083FB013D07EE900A2060CED1A6
:1062A000F2EE046A87EEA67A052084ED007AFFF705
:1062B0007DFF94ED000A08E01D2B04D01F2BA7D111
:1062C000B0EE040A01E0B0EE000ABDEC028BBDE8BE
:1062D000F08D9FED080AF8E7B7EE080AF5E700BF72
:1062E000295C8FC2F5A82040740700202C080020EC
:1062F0003D0AB73F0000C07F0800002030B5094BC1
:1063000053F8144B00218C4207D053F8042F92F815
:106310002450A84202D00131F5E7002202F1080022
:1063200030BD00BF3008002038B50E4C0E4D0F4870
:10633000002322461946FFF7DBFE002301210C480B
:10634000FFF7D6FE28460024214640F8044B1422CD
:1063500004F01EFC5022214605F1180004F018FC40
:1063600038BD00BFBD5F000030080020740700206A
:10637000D007002008B50448FFF7F1FE0348BDE848
:106380000840FFF7ECBE00BFD007002074070020D4
:1063900010B5029C401AE41A6043521A90FBF2F0C6
:1063A000184410BD2DE9F04106460D4601EB0208E8
:1063B0000C464445A4EB050707D0336814F8011BCD
:1063C0001B68304698470028F3D13846BDE8F08175
:1063D00070B50368044608460D465E6805F078F916
:1063E0002946024633462046BDE8704018470368F8
:1063F0008A685B68096818470149FFF7E9BF00BF71
:106400001BDA000038B50546FFF7F1FF04462846C1
:10641000FFF7F2FF204438BD10B50446006808B10C
:1064200004F078FB204610BD10B50446006808B1A2
:1064300004F070FB00232360C4E9013310BD38B5BC
:1064400004460D460068013105F0C6F810B1C4E9F4
:106450000005012038BD036810B5044623B1436828
:106460008B4201D3012010BD2046FFF7E8FF002832
:10647000F9D0A368002BF5D122681370F3E770B54B
:106480000E46114604461546FFF7E5FF20B92046A3
:10649000FFF7CAFF204670BD2A463146A560206836
:1064A00004F052FB2268A3680021D154F2E738B50A
:1064B00000230446C0E9003383600D4639B1084625
:1064C00005F006F9294602462046FFF7D8FF204688
:1064D00038BD38B5054608460C4605F0F9F82146A2
:1064E00002462846BDE83840FFF7C9BF10B504464C
:1064F0008AB00023C4E90033A360084601A900F074
:10650000E1F8204601A9FFF7E4FF20460AB010BDDC
:106510002DE9F04105461746884619B90026304650
:10652000BDE8F0819AB1846814442146FFF793FFD7
:1065300006460028F2D0AB6828683A46184441461F
:1065400004F002FB2B68AC6000221A55E7E7012635
:10655000E5E710B58A6809680446FFF7D9FF10B966
:106560002046FFF761FF204610BDFFFF73B50025F1
:10657000044680F830500D2268460E4600F060F95F
:10658000BDF800306363C3F3841203F4F043B3F542
:10659000006F84F838602574E5746574A5746575BA
:1065A00022750CD004F11003A361064BE361064B86
:1065B0002362064B6362064BA362064BE3622046EE
:1065C00002B070BDE59E0000D59F0000659F0000F1
:1065D000719F0000A19F00000E210148FFF7C6BF78
:1065E00098080020042911D8DFE801F0030C0A0301
:1065F0000E000022064B33F830100020FDF7C2BE1B
:106600001022F7E70422F5E78422F3E7704700BF82
:1066100090D80000044B0A1C18BF012233F8301038
:106620000020FDF755BE00BF90D8000007B5084B0D
:106630000DF1070233F830100020FDF73BFE9DF806
:106640000700003018BF012003B05DF804FB00BF55
:1066500090D80000F0B58BB041B3931E222B2FD8F9
:106660000A2A06D1002804DA4442012601AB1D465D
:1066700010E004460026F9E7B4FBF2F002FB1047F5
:10668000092F044603F10103F8B294BF30305730AC
:1066900003F8010C002CEFD1AB42EDD04EB12D2010
:1066A0004A1C0870AB4206D80023137008460BB092
:1066B000F0BD0A46F6E713F8010D02F8010BF1E709
:1066C0000021F3E7FFF7C6BFEFF31080012383F348
:1066D0001088064B196819B9054AD1704021D1704C
:1066E0001A6801321A6080F310887047A80A0020E7
:1066F000000D0440184A38B50023938072B617493C
:10670000174A184C0A601859D0500433402BFAD15C
:10671000154D002302F140005C59C4500433802B16
:10672000FAD1124B9A60BFF34F8F62B60B68104AD2
:10673000DA601049104A114800F02EF9FFF7C4FF43
:10674000FDF76AFDFFF758FD00F03AF8FDF748FD48
:10675000FDF73AFDFCE700BF000D0040D408002023
:10676000007F0020004000004040000000ED00E0FD
:10677000217000002BDA00001EDA00002EDA000083
:106780000148FFF7C1BB00BF8002002008B5FFF73A
:10679000B1FF00207047FFFF0A4601460148FDF7A0
:1067A000F1BD00BF280A0020024A136801331360BC
:1067B000704700BF140900200121FDF721BFFFFF32
:1067C00013B5124C124A9FED130A00920023019355
:1067D0001946F6EE000A01222046FEF73FFAFEF7C0
:1067E00085FB04F10C020321FEF704FD2046FEF7B1
:1067F000BDFA2046FEF78EFA2046FEF7DEFA204666
:10680000FEF79EFA044B186002B010BDD8080020B5
:10681000A96700000000FA4410090020014B186825
:10682000704700BF140900200148FEF763B800BF9D
:10683000D80800200148FEF713BB00BFD80800208D
:10684000344B1B6870B599424FF0000404804480BB
:10685000848016D8304B03EBC10123464E68E1B269
:1068600036F811101AB901F03E050A2D04E0012A8C
:1068700008D101F03E05082D0AD0090404F10104F5
:10688000EDD570BD022A08D101F03E05042DF2D1EC
:106890005D1C20F81310EBB2EFE7032A04D101F0DE
:1068A0003E05062DE1D1F3E7042A02D101F03A05B5
:1068B000E1E7052A02D101F03A05D6E7062A03D11D
:1068C00001F03E05102DD7E7072A05D101F03E055E
:1068D000122DDDD0182DCFE7082A03D101F03E0597
:1068E000022DC9E70A2A03D101F03E05142DC3E7A2
:1068F0000B2A03D101F03E051C2DBDE70C2A03D164
:1069000001F03E051A2DB7E70D2AB6D101F03E057C
:106910001E2DB1E7C8D9000090D80000F8B5184B7B
:106920001B780546144646184BB11146154804F02D
:106930003BFE154804F038FEAC4212D22C461348F8
:10694000134D114F04F030FE0F4804F02DFEB442F9
:106950000BD3104804F028FE0B48BDE8F84004F0C3
:1069600023BEB44228BF3446E9E7226821462846C0
:1069700004F01AFE384604F017FE0434E7E700BFBF
:10698000080A00201BE200001BDA000040E20000C1
:1069900065E20000A8DB000008B50F4B0F49186046
:1069A0000F4B1A600F4B104A1A60104B9B1A104A7B
:1069B0001360104A1160104A521A10490A603BB91C
:1069C0000F4804F0F1FD0F48BDE8084004F0ECBDAD
:1069D0000D4B01221A7008BDB009002000400000D4
:1069E0000C0A0020BC090020007B0020007F002052
:1069F000B8090020AC09002004E60000A809002026
:106A0000B9E100001BDA0000B409002008B5064B0C
:106A100006481A68064B196804F0C6FD0548BDE82B
:106A2000084004F0C1BD00BF0C0A002096E1000040
:106A3000B00900201BDA0000304B2DE9F04F1C6834
:106A40002F4BD3F800E02F4B1D782F4B1E782F4B88
:106A50001F682F4B1B688B4607EB030CDDB1CEB9CB
:106A60002C4B99695B690160013BBB4215D36345BF
:106A700013D8BBF1010F10D943600223A64426B1FD
:106A8000944203D8724528BF724614460437DFF893
:106A900088802EE000252B46F0E735460123EDE700
:106AA0002268D10724D5561EB74221D866451FD883
:106AB0000F2B1DD832F8059C32F8032C02EA080A85
:106AC000BAF5784F04D109EA0809B9F5704F04D036
:106AD00002F47F42B2F58E4F0AD15B4508D2022BF9
:106AE00003D115B14268B24202D040F823600133AD
:106AF00004347445D4D31846BDE8F08FBC09002097
:106B0000B8090020C0090020080A0020AC090020B4
:106B1000A8090020C409002000F8FFFF2DE9F04378
:106B200091B0044640220021684604F031F8224624
:106B300010216846FFF780FF164FDFF87080064689
:106B400000244FF02009B44213D1FCB1114B12497B
:106B50001248096804EBC4041C44002204F8012C08
:106B60000F4A04F021FD0F4804F01EFD11B0BDE8EE
:106B7000F08304EBC4053D445DF8242041462846DB
:106B800004F086FD013485F80890DCE7064804F03F
:106B90000BFDE8E718090020B00900208BE2000097
:106BA00086E200001BDA0000C8E2000080E200007C
:106BB0002DE9F0410D4B1B7886B006460D4643B9D2
:106BC0000B4A0C490C4804F0EFFC0C4804F0ECFCB8
:106BD000FEE70B4B1A78BAB1054A0A49064804F099
:106BE000E3FC064804F0E0FCFEE700BFB409002027
:106BF000AFDA0000C2DA0000CADA00001BDA0000D7
:106C0000C0090020E8DA0000A64AA7481468A74A8D
:106C1000A74FD2F8008001221A7004F0C5FCA548E5
:106C200004F0C2FCFFF7F2FEA34804F0BDFCA1484B
:106C300004F0BAFCF6064CBF05F1200605F1680623
:106C4000B44203D804EB0803B34201D201233B70E2
:106C5000204632464146FFF761FE3B78974C002BB9
:106C60003DD1974804F0A0FC924804F09DFC2F69A8
:106C700027616F692A686B68A968E8686761AF690E
:106C8000ED6922606360A160E060A761E561049046
:106C90008C48CDE902108C498C48CDE900318C4BF1
:106CA0008C4904F081FC834804F07EFCE369049382
:106CB000894B0393A3690293884B01936369009303
:106CC0002269874B8749814804F06EFC794804F0BB
:106CD0006BFC854804F068FC764804F065FC834B47
:106CE000834A1B682362834B1B7884F82430824BD1
:106CF0001B68A362814B1B7884F82C30804B1B6887
:106D00002363804B1B88A3867F4B1B681288E2633A
:106D10007E4AA363128822649D0705D57C4804F04F
:106D200043FC644804F040FC94F83B30580640F1C2
:106D3000278194F82430002B3CD0D90705D575481D
:106D400004F032FC5B4804F02FFC94F824309A07DE
:106D500005D5714804F028FC564804F025FC94F849
:106D600024301B0705D56D4804F01EFC514804F083
:106D70001BFC94F82430DF0605D5694804F014FCA8
:106D80004C4804F011FC94F824309D0605D5654864
:106D900004F00AFC474804F007FC94F82430180675
:106DA00008D5990706D0A16A5F4804F0FDFB414869
:106DB00004F0FAFB94F82C30002B46D0DA0705D506
:106DC0005A4804F0F1FB3B4804F0EEFB94F82C30F9
:106DD0009B0705D5564804F0E7FB364804F0E4FB72
:106DE00094F82C305F0705D5524804F0DDFB31489C
:106DF00004F0DAFB94F82C301D0705D54E4804F05A
:106E0000D3FB2C4804F0D0FB94F82C30D80605D5E1
:106E10004A4804F0C9FB274804F0C6FB94F82C301C
:106E2000990605D5464804F0BFFB224804F0BCFB98
:106E300094F82C301A0608D59F0706D5216B4148D7
:106E400004F0B2FB1B4804F0AFFBA38E002B00F054
:106E5000978094F83430DD0705D53B4804F0A4FB57
:106E6000144804F0A1FB94F83430980705D537484E
:106E700004F09AFB0F4804F097FB94F8343059075C
:106E800005D5334804F090FB0A4804F08DFB94F8D4
:106E900034301A0760D52F4804F086FB054804F00B
:106EA00083FB59E0BC0900201CDA0000B80900206F
:106EB000080A00201BDA0000F2DA0000C4090020F2
:106EC00026DB0000EDE20000F1E2000065DB0000DF
:106ED000E5E20000E9E20000FDE2000001E300005D
:106EE000F5E20000F9E200008EDB000024ED00E096
:106EF00030ED00E028ED00E034ED00E029ED00E0A9
:106F000038ED00E02AED00E02CED00E03CED00E083
:106F1000CDDB0000F9DB00003BDC000076DC00008C
:106F2000ACDC0000E0DC00002CDD000061DD0000D6
:106F300095DD0000CADD000001DE000029DE000052
:106F40004FDE00008DDE0000B4DE0000FADE00003F
:106F500046DF0000A5DF000094F83530DB0705D5DB
:106F6000274804F021FB274804F01EFB94F8353035
:106F70009F0705D5244804F017FB224804F014FBB2
:106F800094F93B30002B34DAE36B002B31D094F8CA
:106F90003C30DD0705D51D4804F006FB194804F018
:106FA00003FB94F83C30980705D5194804F0FCFA27
:106FB000144804F0F9FA94F83C30590705D51548FF
:106FC00004F0F2FA0F4804F0EFFA94F83C301A0794
:106FD00005D5114804F0E8FA0A4804F0E5FA94F8F7
:106FE0003C30DB0605D50D4804F0DEFA054804F018
:106FF000DBFA304606B0BDE8F041FFF78FBD00BFB9
:10700000ECDF00001BDA00003EE00000A8E000001A
:10701000D8E000000BE1000037E1000066E100006D
:1070200070466946FFF7C4FDFEE710B5002814BF9F
:1070300004460124204603F065FD30B900F016F83F
:1070400008B903F057FD8047F4E710BD0368DB077C
:1070500006D4437803B1FFDE01234370184670471E
:1070600000207047012303607047FFFF024B186840
:10707000BFF35B8F704700BF100A002000F000B81C
:1070800003F048BD81F0004102E000BF83F00043FF
:1070900030B54FEA41044FEA430594EA050F08BFB3
:1070A00090EA020F1FBF54EA000C55EA020C7FEA77
:1070B000645C7FEA655C00F0E2804FEA5454D4EBF4
:1070C0005555B8BF6D420CDD2C4480EA020281EABE
:1070D000030382EA000083EA010180EA020281EAF6
:1070E0000303362D88BF30BD11F0004F4FEA013148
:1070F0004FF4801C4CEA113102D0404261EB410157
:1071000013F0004F4FEA03334CEA133302D05242DC
:1071100063EB430394EA050F00F0A780A4F1010498
:10712000D5F1200E0DDB02FA0EFC22FA05F28018D2
:1071300041F1000103FA0EF2801843FA05F35941B8
:107140000EE0A5F120050EF1200E012A03FA0EFC37
:1071500028BF4CF0020C43FA05F3C01851EBE37161
:1071600001F0004507D54FF0000EDCF1000C7EEB7E
:1071700000006EEB0101B1F5801F1BD3B1F5001FBC
:107180000CD349085FEA30004FEA3C0C04F10104DB
:107190004FEA445212F5800F80F09A80BCF1004F04
:1071A00008BF5FEA500C50F1000041EB045141EA86
:1071B000050130BD5FEA4C0C404141EB010111F487
:1071C000801FA4F10104E9D191F0000F04BF014632
:1071D0000020B1FA81F308BF2033A3F10B03B3F110
:1071E00020020CDA0C3208DD02F1140CC2F10C02A0
:1071F00001FA0CF021FA02F10CE002F11402D8BFFE
:10720000C2F1200C01FA02F120FA0CFCDCBF41EAC9
:107210000C019040E41AA2BF01EB0451294330BD98
:107220006FEA04041F3C1CDA0C340EDC04F1140475
:10723000C4F1200220FA04F001FA02F340EA03004C
:1072400021FA04F345EA030130BDC4F10C04C4F192
:10725000200220FA02F001FA04F340EA0300294672
:1072600030BD21FA04F0294630BD94F0000F83F4BC
:10727000801306BF81F480110134013D4EE77FEA9F
:10728000645C18BF7FEA655C29D094EA050F08BFEB
:1072900090EA020F05D054EA000C04BF19461046CC
:1072A00030BD91EA030F1EBF0021002030BD5FEA10
:1072B000545C05D14000494128BF41F0004130BD38
:1072C00014F580043CBF01F5801130BD01F000458C
:1072D00045F0FE4141F470014FF0000030BD7FEAFF
:1072E000645C1ABF194610467FEA655C1CBF0B46FA
:1072F000024650EA013406BF52EA033591EA030F11
:1073000041F4002130BD00BF90F0000F04BF002108
:10731000704730B54FF4806404F132044FF000053B
:107320004FF0000150E700BF90F0000F04BF0021B4
:10733000704730B54FF4806404F1320410F000451A
:1073400048BF40424FF000013EE700BF42004FEA15
:10735000E2014FEA31014FEA02701FBF12F07F4392
:1073600093F07F4F81F06051704732F07F4208BF49
:10737000704793F07F4F04BF41F40021704730B550
:107380004FF4607401F0004521F000411CE700BF9C
:1073900050EA010208BF704730B54FF000050AE01F
:1073A00050EA010208BF704730B511F0004502D520
:1073B000404261EB41014FF4806404F132045FEA22
:1073C000915C3FF4D8AE4FF003025FEADC0C18BFCB
:1073D00003325FEADC0C18BF033202EBDC02C2F1BD
:1073E000200300FA03FC20FA02F001FA03FE40EA4F
:1073F0000E0021FA02F11444BDE600BF70B54FF053
:10740000FF0C4CF4E06C1CEA11541DBF1CEA135530
:1074100094EA0C0F95EA0C0F00F0DEF82C4481EA98
:10742000030621EA4C5123EA4C5350EA013518BFB8
:1074300052EA033541F4801143F4801338D0A0FBA5
:1074400002CE4FF00005E1FB02E506F00042E0FB52
:1074500003E54FF00006E1FB03569CF0000F18BF58
:107460004EF0010EA4F1FF04B6F5007F64F5407400
:1074700004D25FEA4E0E6D4146EB060642EAC62193
:1074800041EA55514FEAC52040EA5E504FEACE2E00
:10749000B4F1FD0C88BFBCF5E06F1ED8BEF1004F03
:1074A00008BF5FEA500E50F1000041EB045170BD7F
:1074B00006F0004646EA010140EA020081EA0301C3
:1074C000B4EB5C04C2BFD4EB0C0541EA045170BDBF
:1074D00041F480114FF0000E013C00F3AB8014F139
:1074E000360FDEBF002001F0004170BDC4F1000482
:1074F000203C35DA0C341BDC04F11404C4F1200503
:1075000000FA05F320FA04F001FA05F240EA02005D
:1075100001F0004221F0004110EBD37021FA04F693
:1075200042EB06015EEA430E08BF20EAD37070BD4D
:10753000C4F10C04C4F1200500FA04F320FA05F0AC
:1075400001FA04F240EA020001F0004110EBD370AE
:1075500041F100015EEA430E08BF20EAD37070BD1E
:10756000C4F1200500FA05F24EEA020E20FA04F3F7
:1075700001FA05F243EA020321FA04F001F00041A6
:1075800021FA04F220EA020000EBD3705EEA430E17
:1075900008BF20EAD37070BD94F0000F0FD101F046
:1075A0000046400041EB010111F4801F08BF013C7F
:1075B000F7D041EA060195F0000F18BF704703F0BD
:1075C0000046520043EB030313F4801F08BF013D44
:1075D000F7D043EA0603704794EA0C0F0CEA135500
:1075E00018BF95EA0C0F0CD050EA410618BF52EABA
:1075F0004306D1D181EA030101F000414FF00000C0
:1076000070BD50EA410606BF1046194652EA4306CD
:1076100019D094EA0C0F02D150EA013613D195EA41
:107620000C0F05D152EA03361CBF104619460AD189
:1076300081EA030101F0004141F0FE4141F4700193
:107640004FF0000070BD41F0FE4141F4780170BD83
:1076500070B54FF0FF0C4CF4E06C1CEA11541DBFE8
:107660001CEA135594EA0C0F95EA0C0F00F0A7F8EA
:10767000A4EB050481EA030E52EA03354FEA013117
:1076800000F088804FEA03334FF0805545EA13132A
:1076900043EA12634FEA022245EA111545EA1065F2
:1076A0004FEA00260EF000419D4208BF964244F189
:1076B000FD0404F5407402D25B084FEA3202B61AA8
:1076C00065EB03055B084FEA32024FF480104FF47C
:1076D000002CB6EB020E75EB030E22BFB61A7546F0
:1076E00040EA0C005B084FEA3202B6EB020E75EB83
:1076F000030E22BFB61A754640EA5C005B084FEAEB
:107700003202B6EB020E75EB030E22BFB61A7546B7
:1077100040EA9C005B084FEA3202B6EB020E75EBC2
:10772000030E22BFB61A754640EADC0055EA060E83
:1077300018D04FEA051545EA16754FEA06164FEAC6
:10774000C30343EA52734FEAC2025FEA1C1CC0D172
:1077500011F4801F0BD141EA00014FF000004FF0FF
:10776000004CB6E711F4801F04BF01430020B4F1C0
:10777000FD0C88BFBCF5E06F3FF6AFAEB5EB030C78
:1077800004BFB6EB020C5FEA500C50F1000041EB75
:10779000045170BD0EF0004E4EEA113114EB5C0442
:1077A000C2BFD4EB0C0541EA045170BD41F4801115
:1077B0004FF0000E013C90E645EA060E8DE60CEA1D
:1077C000135594EA0C0F08BF95EA0C0F3FF43BAF3A
:1077D00094EA0C0F0AD150EA01347FF434AF95EAF1
:1077E0000C0F7FF425AF104619462CE795EA0C0FD5
:1077F00006D152EA03353FF4FDAE1046194622E7A2
:1078000050EA410618BF52EA43067FF4C5AE50EA7B
:1078100041047FF40DAF52EA43057FF4EBAE12E76B
:107820004FF0FF3C06E000BF4FF0010C02E000BF4C
:107830004FF0010C4DF804CD4FEA410C7FEA6C5C2F
:107840004FEA430C18BF7FEA6C5C1BD001B050EAD2
:10785000410C0CBF52EA430C91EA030F02BF90EABD
:10786000020F0020704710F1000F91EA030F58BF7C
:10787000994208BF90422CBFD8176FEAE37040F0DE
:10788000010070474FEA410C7FEA6C5C02D150EA7C
:10789000013C07D14FEA430C7FEA6C5CD6D152EA37
:1078A000033CD3D05DF8040B704700BF84461046FC
:1078B00062468C461946634600E000BF01B5FFF7FB
:1078C000B7FF002848BF10F1000F01BD4DF808EDCB
:1078D000FFF7F4FF0CBF012000205DF808FB00BF9C
:1078E0004DF808EDFFF7EAFF34BF012000205DF8F6
:1078F00008FB00BF4DF808EDFFF7E0FF94BF012043
:1079000000205DF808FB00BF4DF808EDFFF7CEFF43
:1079100094BF012000205DF808FB00BF4DF808ED82
:10792000FFF7C4FF34BF012000205DF808FB00BF53
:107930004FEA410C7FEA6C5C02D150EA013C0AD16B
:107940004FEA430C7FEA6C5C02D152EA033C02D15D
:107950004FF0000070474FF0010070474A0011D20D
:1079600012F5001211D20DD56FF47873B3EB625299
:107970000ED44FEAC12343F0004343EA505323FAA5
:1079800002F070474FF00000704750EA013002D11A
:107990004FF0FF3070474FF0000070474FEA410250
:1079A000B2F1E04324BFB3F5001CDCF1FE5C0DD95D
:1079B00001F0004C4FEAC0024CEA5070B2F1004FA7
:1079C00040EB830008BF20F00100704711F0804FAA
:1079D00021D113F13872BCBF01F00040704741F46F
:1079E00080114FEA5252C2F11802C2F1200C10FA73
:1079F0000CF320FA02F018BF40F001004FEAC12357
:107A00004FEAD32303FA0CFC40EA0C0023FA02F3FA
:107A10004FEA4303CCE77FEA625307D150EA0133D0
:107A20001EBF4FF0FE4040F44000704701F00040A0
:107A300040F0FE4040F40000704700BF2DE9F047E1
:107A4000089E04468846002B4BD18A42154667D9CA
:107A5000B2FA82F24AB1C2F1200701FA02F320FA27
:107A600007F7954047EA030894404FEA154E230C68
:107A7000B8FBFEF71FFA85FC0EFB178843EA0843A4
:107A800007FB0CF1994209D9EB1807F1FF3080F0A0
:107A90001B81994240F21881023F2B445B1AA4B229
:107AA000B3FBFEF00EFB103344EA034400FB0CFC76
:107AB000A44509D92C1900F1FF3380F00781A445B2
:107AC00040F2048102382C4440EA0740A4EB0C0445
:107AD00000271EB1D4400023C6E900433946BDE863
:107AE000F0878B4209D9002E00F0EB800027C6E911
:107AF000000138463946BDE8F087B3FA83F7002F16
:107B000047D18B4202D3824200F2FA80841A61EBA1
:107B1000030301209846002EE0D0C6E90048DDE7C7
:107B200002B9FFDEB2FA82F2002A40F08F80491BD0
:107B30004FEA154E1FFA85F80127B1FBFEFC230C16
:107B40000EFB1C1143EA014308FB0CF1994207D9D3
:107B5000EB180CF1FF3002D2994200F2CD8084463E
:107B6000591AA3B2B1FBFEF00EFB101443EA044411
:107B700008FB00F8A04507D92C1900F1FF3302D209
:107B8000A04500F2B6801846A4EB080440EA0C4079
:107B90009FE7C7F1200CBB4022FA0CFE4EEA030E11
:107BA00001FA07F420FA0CF521FA0CF34FEA1E480B
:107BB0002543B3FBF8F92C0C08FB19331FFA8EFA96
:107BC00044EA034309FB0AF49C4202FA07F200FA72
:107BD00007F10BD91EEB030309F1FF3080F087801A
:107BE0009C4240F28480A9F1020973441B1BADB290
:107BF000B3FBF8F008FB103345EA034400FB0AFA34
:107C0000A24508D91EEB040400F1FF336BD2A24554
:107C100069D90238744440EA0940A0FB0289A4EB08
:107C20000A044C45C2464B4654D351D0002E69D06D
:107C3000B1EB0A0564EB030404FA0CFCFD40FC40C4
:107C40004CEA0505C6E90054002747E7C2F12003C6
:107C500020FA03F7954001FA02F021FA03F34FEA04
:107C6000154E3843010CB3FBFEF71FFA85F80EFBE7
:107C7000173341EA034107FB08F38B4204FA02F48D
:107C800007D9691807F1FF3C2FD28B422DD9023F4B
:107C90002944CB1A81B2B3FBFEF00EFB103341EA4C
:107CA000034100FB08F38B4207D9691800F1FF3C40
:107CB00017D28B4215D902382944C91A40EA07471E
:107CC0003BE73746304609E70746E7E61846FBE656
:107CD0004145ABD2B8EB020A69EB0E0201381346FC
:107CE000A4E76046E9E7184695E76746D1E781468D
:107CF0007CE702382C4447E7ACF1020C2B442FE719
:107D0000384608E73746E9E6704700BF70B5836A32
:107D100084B004460E46ABB193E8070001AD85E898
:107D200007006168E26A097819601E719A60184656
:107D3000636A9847A36A1BB195E8070083E80700C8
:107D400004B070BD01AD2B46EBE700BF30B4EFF3DC
:107D50000383103B5BB203F1C0011C4A1C4C52F878
:107D600021006FF3104042F8210054F82330D3E98A
:107D700006218A4212D018699C6868B193F8205095
:107D80000F2D18D9616840F82210D96901328A4252
:107D90009A6103D030BC70476068F7E75B680D49B3
:107DA00093F90330012203F01F005B09824041F880
:107DB000232030BC7047072D03D821798154D9691D
:107DC000E4E7A48820F81240E0E700BF006000402C
:107DD000AC0A002000E100E0F0B4EFF30383103BB5
:107DE0005BB203F1C0022849284C51F822006FF31E
:107DF000104041F8220054F823305C685A69206A28
:107E0000DD6910B1407801280FD0AA420BD0D3E928
:107E1000020129B193F820400F2C16D951F82210F5
:107E2000416001325A61F0BC70476E1E964214D018
:107E300021690029E9D094F90310154C01F01F06BF
:107E40004909B04044F82100DFE7072C95BF895C61
:107E500031F8121001718180E3E794F9036006F1B3
:107E6000C0077409A40051F827C004F1604404F568
:107E7000614406F01F06B0406FF3104C41F827C074
:107E8000C4F880012060C0E700600040AC0A002018
:107E900000E100E070B4EFF30383103B5BB2304AC3
:107EA000304C03F1C00152F821006FF3104042F84A
:107EB000210054F823008268D278920705D54268E1
:107EC000527A012A01D070BC704759092031012231
:107ED000254C03F01F0302FA03F344F82130BFF3EB
:107EE0004F8FBFF36F8F436893F90230002B2EDB67
:107EF0005909203103F01F0302FA03F344F821303B
:107F0000BFF34F8FBFF36F8FD0E90114237891F93E
:107F100002106FF386130029237014DB01F1C005F2
:107F20000F4C4B099B0054F8256003F1604303F5A7
:107F3000614301F01F018A406FF3104644F8256049
:107F4000C3F880211A60012170BCFFF7DFBE826890
:107F500013786FF386131370012170BCFFF7D6BE40
:107F600000600040AC0A002000E100E0F8B5EFF34B
:107F70000384103C314B64B253F82460736893F966
:107F80000230002B42DB5A09203201202C4903F039
:107F90001F0300FA03F341F82230BFF34F8FBFF302
:107FA0006F8FD6E90112137891F902106FF38613DF
:107FB0000029137015DB01F1C007224D4B099B000E
:107FC00055F827C003F1604303F5614301F01F0139
:107FD00000FA01F16FF3104C45F827C0C3F8801187
:107FE0001960D5780023EDB2D3702A0721D4EB07AE
:107FF00012D405F01405142D16D0C034114B53F8CB
:1080000024206FF3104243F82420F8BDB26813789F
:108010006FF386131370E4E70421304605F014056E
:10802000FFF774FE142DE8D130460821FFF76EFEED
:10803000E3E705213046FFF769FED8E7AC0A0020E8
:1080400000E100E00060004070B50D46016A8B78E9
:1080500003F07B038B700378044623B3C0E903521B
:10806000E369186988B122697AB1A37881680068E8
:108070008E68E16803F00303013B22FA03F3002258
:108080009BB22261B04768B9216A8B7843F08003C4
:108090008B70207878B9A37803F00303022B0CD0FF
:1080A0002B78CB7070BD837803F00303D21A2B4476
:1080B000C0E90332D4E7002070BD2B8843F47E432F
:1080C000CB8170BD036A9A7870B4D2B2054602F0D3
:1080D0000B004E780C7898700020E8608D785D7009
:1080E0001D7866F301051D70C9789974DD7904F077
:1080F0005C0105F0A304214302F07B02D97170BC3E
:108100009A707047F0B5846A85B006468C4617466B
:10811000BCB194E80F006D4685E80F00F269F36A80
:1081200012782260E360C4F808C027712046736AA1
:108130009847B46A1CB195E80F0084E80F0005B0B9
:10814000F0BD6D462C46E9E770B5D0E9072592F9F8
:1081500005202F49044650090123203002F01F0258
:10816000002603FA02F26660AE7041F82020BFF3E9
:108170004F8FBFF36F8FE26992F90B2050092030C7
:1081800002F01F0203FA02F241F82020BFF34F8FE2
:10819000BFF36F8FE26992F907205009203002F097
:1081A0001F0203FA02F241F82020BFF34F8FBFF302
:1081B0006F8FE26992F909205009203002F01F0206
:1081C000934041F82030BFF34F8FBFF36F8FE369C7
:1081D000DA6822B1936810681B6A9847E3691B69E3
:1081E0001BB19A681868136A9847EFF3108201234D
:1081F00083F31088E069074900784C68C0F11F00DC
:10820000834023434B604B6882F31088002070BD8D
:1082100000E100E0FC6F04402DE9F8430D460978C9
:108220000323CB4013F0010301F1007218BF1023A8
:10823000037002F560528378520101210262044604
:108240006A78C56161F30103D5E905106162002117
:10825000A370C4E90A1022B9DBB2022262F301035F
:10826000A37095F90B60674BA87A7209203206F06B
:108270001F07012101FA07F743F82270BFF34F8F60
:10828000BFF36F8F604A614F06F1C00C03EB060825
:1082900052F82CE000016FF3104E42F82CE0C0B20F
:1082A00088F8000395F9050047F826404FEA501C6E
:1082B0000CF1200C00F01F0E01FA0EFE2E7943F88F
:1082C0002CE0BFF34F8FBFF36F8F00F1C00C03EBB7
:1082D000000852F82CE036016FF3104E42F82CE003
:1082E000F6B288F8006395F9076047F820404FEA36
:1082F000561C0CF1200C06F01F0E01FA0EFEA87998
:1083000043F82CE0BFF34F8FBFF36F8F06F1C00C23
:1083100003EB060852F82CE000016FF3104E42F810
:108320002CE0C0B288F8000395F9090047F8264010
:108330004FEA501C00F01F060CF1200CB1402E7AC1
:1083400043F82C10BFF34F8FBFF36F8F00F1C00CB9
:10835000310152F82C600344C9B26FF3104642F861
:108360002C6083F8001347F82040EB68F3B159689C
:10837000266A0A68E7694FF4002C701DC2E900C044
:1083800094F800C0BCF1000F01D0113656607E7821
:1083900036B9D67801270B3067F305165060D670D2
:1083A0009A68186813689847064640BB2B69002BEB
:1083B0002ED05968266A0A68E7694FF0006CF01CF5
:1083C000C2F800C0906094F800C0BCF1000F01D06A
:1083D0000F3696607E7836B9D67801270B3067F372
:1083E00005169060D6709A68186813689847064614
:1083F00070B1EB681BB19A681868136A98473046E9
:10840000BDE8F88300E100E000600040AC0A002015
:10841000EFF31082012383F310889B492E7848687C
:10842000C6F11F06B34020EA03034B604B6882F39A
:108430001088236A00229A701A715A729A72DA723C
:108440005A83297840F20722CA40D20744BF40220B
:10845000DA7406221A772278E16972B1C868013AA3
:10846000002800F008810120120392B2024342F07A
:1084700006009882988A8242FCD1EE786A78A878C1
:10848000F600032A46EA001600F0E280002A0CBF3C
:108490004FF0E20E4FF0F20EED696A7895F802C0E7
:1084A0002F7B2878F6B2D2014FEA4C1C1E700CF0DC
:1084B000200C7F00D2B2861E07F0020742EA0C02AF
:1084C000012E4FF0000C83F806E05F7383F808C0BC
:1084D00040F2C8806E68D2B2DA71B2785A701F78F2
:1084E00096F801C032786CF301071F70F6789E741D
:1084F000DE7902F05C0206F0A3063243DA7191F9EC
:1085000005C0624E0027C4E90377C4E905770CF182
:10851000C00200F0030056F822E067F3104E46F860
:1085200022E04FEA5C12920091F90B8002F1604266
:1085300002F561420CF01F0E4FF0010C08F1C0096A
:108540000CFA0EFEC2F880E1C2F800E056F82920CD
:1085500067F3104246F829204FEA5812920091F929
:1085600007E002F1604202F5614208F01F080EF1D7
:10857000C0090CFA08F8C2F88081C2F8008056F8E9
:10858000292067F3104246F829204FEA5E12920034
:1085900091F9091002F1604202F561420EF01F0EDE
:1085A00001F1C0080CFA0EFEC2F880E1C2F800E04A
:1085B00056F828E067F3104E46F828E04A09920082
:1085C0006D8902F1604202F5614201F01F014FF630
:1085D000FF760CFA01F140F07000B542C2F880114C
:1085E0001160987025812DD0EFF310818CF31088E5
:1085F000274A13681BB927484025C370C570136804
:108600000133136081F31088218923480B0A1B0171
:1086100053FA81F150F8213023F0011323F4404341
:1086200043F0040340F82130EFF31081012383F37A
:108630001088136813B11368013B1360136863B1AA
:1086400081F31088154B636000263046BDE8F8833F
:1086500046F040064FF0F20E1EE70E4A8020D3701F
:10866000D070EDE7022808BF42F01002FF26D2B218
:108670005E70DA7143E7C869007A1040000200F4C6
:10868000706040F00100EFE6FC6F044000600040C5
:10869000A80A0020000D0440000804405549435337
:1086A0002DE9F04F9B46FF258024634B8BF8025049
:1086B0008BF80340614C1B6A2668614C9BF80050A4
:1086C000C3F302678BB0BE40C3F3023326FA03F351
:1086D00000910992A3FB0412CDE9021200266FF368
:1086E000820506931B0ACDE907068BF80050204649
:1086F00005930196099B834276DA9DF82030049316
:108700000027504B049ADD5DC5F34009C5F3800591
:1087100049EA050393425FD14B4B33F81780079B1F
:1087200003FB08F8069BB3FBF8F4661EFF2E53D834
:1087300004FB08F4824621E0059AB4FBF2F27F2A9A
:1087400002FB03F354D9002BB8BFFF331B12A3F570
:10875000C333A03B002BB8BF5B429A454ADC9BF871
:1087600000309DF804208BF8032043F00403A4EBB1
:1087700008048BF80030002E3AD0013E2246E31761
:10878000DDE9020102F066F9A0F5C330A038009AD5
:1087900000F5C333A033002ACED10028B8BF404231
:1087A000824525DD274B9BF80110DA5D9BF80030F0
:1087B0008BF80260C2F3000464F3861369F30413B8
:1087C00065F3C303C2F3C10262F301018BF8003009
:1087D000009B8BF80110019301370D2F91D1089B5D
:1087E0001BB3099B984223DC00200BB0BDE8F08F3F
:1087F0005046F1E713498BF80260C85D9BF8001002
:108800000192C0F3000C6CF386119BF801C069F370
:108810000411C0F3C10065F3C30160F3010C9A4673
:108820008BF800108BF801C099E70123089361E7EA
:1088300003200BB0BDE8F08F00E00140340B0020B6
:10884000A086010008E3000018E30000F0B4EFF395
:108850000383103B5BB203F1C001324A324C52F841
:1088600021006FF3104042F8210054F82300C26940
:108870000369126992B10BB1F0BC7047026A937838
:10888000446A03F07F0343F0040300219370C16046
:10889000002CF1D08022F0BCFFF734BC026A002B20
:1088A000EDD00678E6B1D48AC4F30424B4422DD2C4
:1088B0008578C16805F0030C654609E00F78D77329
:1088C00001345B1B2944B442C0E903131ED223B315
:1088D000BCF1020FF2D10F8847F47E47D781EFE752
:1088E0008178C46801F00305022D0AD02578D5707F
:1088F00001F003029B1A2244C0E90323002BBBD1E1
:10890000BCE7258845F47E45D581F1E711796FF301
:10891000C7111171002BAFD1B0E7117963F3C71103
:108920001171ACE700600040AC0A002030B583B0A4
:10893000EFF30383103B5BB203F1C001554A564C81
:1089400052F821006FF3104042F8210054F8234000
:10895000E369DB6873B1A36963B1636A0021C4E9A9
:108960000511002B70D02046012203B0BDE8304035
:10897000FFF7C8BB22894FF6FF739A4220D0EFF36E
:108980001081012383F31088444B1A681AB94448B4
:108990004025C270C5701A6801321A6081F31088D0
:1089A00022894049130A1B0153FA82F251F82230FE
:1089B00023F0011323F4404343F0050341F8223030
:1089C0002278236A002A41D0D98AC80613D01B8A8C
:1089D000C3F308030193A369002B41D1636A2BB150
:1089E000042201992046FFF78DFB22782AB1236AE1
:1089F000D98AC906E6D1BE221A7123894FF6FF72C1
:108A0000934221D01A0A120152FA83F2254951F8F1
:108A1000223023F0011323F4404343F0040341F8D0
:108A20002230EFF31082012383F310881B4B196867
:108A300011B11968013919601B681BB918498020E8
:108A4000CB70C87082F3108803B030BDA17801F0FC
:108A500003010229BBD05B790193A369002BBDD030
:108A6000A278606902F0030201A902F06DF8D4E96E
:108A70000521A37803F003031A44C91AC4E90521A8
:108A800029B9636A1BB101222046FFF73BFB22781C
:108A9000ACE700BF00600040AC0A0020A80A00203C
:108AA000000D04400008044010B5EFF30384103CAF
:108AB0000B4B64B253F82400D0E90821937803F0FB
:108AC0007B03937019B102220021FFF71BFBC03416
:108AD000044B53F824206FF3104243F8242010BDB8
:108AE000AC0A00200060004070B5EFF30384103C36
:108AF000164B64B253F824000278036A3AB98278BC
:108B000002F00302022A02D05979C9B202E0198A9E
:108B1000C1F308011D79EDB2EE0605F0380204D567
:108B20001D7FED0758BF42F040021D79466A05F0EF
:108B3000C7051D710EB1FFF7E5FAC034044B53F8B9
:108B400024206FF3104243F8242070BDAC0A0020AB
:108B50000060004070B5436A84B004460E46ABB175
:108B600093E8070001AD85E807006168A26A09780B
:108B700019601E719A601846236A9847636A1BB190
:108B800095E8070083E8070004B070BD01AD2B46EF
:108B9000EBE700BF10B4EFF30383103B5BB203F1CC
:108BA000C001144A144C52F821006FF3104042F8EF
:108BB000210054F823305A69D9698A4206D2D3E990
:108BC0000240A8B1805CE07001325A61914202D04B
:108BD0005DF8044B70471A69002AF9D19A685DF86C
:108BE000044B937803F07B0343F0040393707047C6
:108BF000E070E9E700600040AC0A002010B4EFF339
:108C00000383103B5BB203F1C001174A174C52F8C3
:108C100021006FF3104042F8210054F823305A69C4
:108C2000D9698A4206D2D3E90240D0B1805CE070B3
:108C300001325A619A698A4207D298681969407963
:108C4000541C9C618854D3E90621914206D19A684C
:108C5000937803F03B0343F0040393705DF8044BF7
:108C60007047E070E4E700BF00600040AC0A0020FD
:108C700010B5EFF30384103C64B20A4B53F82400A0
:108C80008268937803F0030393700121FFF762FF7A
:108C9000C034054B53F824206FF3104243F82420CE
:108CA00010BD00BFAC0A00200060004010B5EFF31B
:108CB0000384103C64B20B4B53F8240083689A7809
:108CC00002F003029A70842219791A710421FFF7C5
:108CD00041FFC034044B53F824206FF3104243F893
:108CE000242010BDAC0A00200060004003685B69CE
:108CF000A3B190F82D2070B502F0FF056AB90446C3
:108D00009A6818689668238CA1692A46B047E26978
:108D100025620123626284F8333070BD704700BF62
:108D2000F0B5856B83B004460F4635B395E8030074
:108D30006E4686E803002368E16B5A6929602F714B
:108D40003AB194F82D1021B9936810681B699847BF
:108D500023689B6933B194F82D201AB19A6818687A
:108D600013699847636B28469847A36B1BB196E835
:108D7000030083E8030003B0F0BD6E463546DAE732
:108D8000EFF30383103B5BB2C033044A52F8231065
:108D90006FF3104142F82310704700BF006000409D
:108DA000F8B5EFF30383103B5BB2C033624A52F86D
:108DB00023106FF3104142F82310EFF30383103BAD
:108DC0005BB25E4A52F8234021690B7B13F001032A
:108DD0002CD194F82C2094F82A00904216D094F8C4
:108DE0002D300BB1022A43D02046FFF77FFF2369C5
:108DF00094F82820DA7094F82B2094F82C30013A5B
:108E0000013384F82B2084F82C30F8BD94F83320FB
:108E100002F0FF054ABB236ABBBB94F82E3053B364
:108E200052220123CA7284F83030F8BD94F82D30F4
:108E30009BB194F8313083B9636AA2694979D154FE
:108E4000D4E9082394F82E10013A0133C4E9082329
:108E5000A1B923695422DA72F8BD002001225423FB
:108E6000206284F82F20CB72F8BD84F83330F8BD2F
:108E70005223CB72F8BD5423CB72F8BD2269522124
:108E80000123D17284F83030F8BD94F82D20002AE7
:108E900032D094F83120002A37D0226884F831503B
:108EA0005069002841D09269002A3ED0E669022E1E
:108EB0003BD9936810689F68A269B31EF4268E7030
:108EC0009BB22946B8472268E369526991681068E5
:108ED0008E68023B9BB22A462946B047E369216966
:108EE000023B0220C4E90803012284F83320002356
:108EF000FF228B72CA70F8BD626AA569501C013BE3
:108F0000AA5CC4E90830CA70F5E7636AA2694979C6
:108F1000D154D4E90832013B0132012B2169C4E963
:108F2000083204D0FF22CA70E5E7012BDFD82023E6
:108F3000FF228B72CA70DEE700600040AC0A00209E
:108F400038B5EFF30383103B5BB2374A52F8234046
:108F50002269D37A6FF3C303D37294F82F30002BB6
:108F600039D103F0FF0094F82A1094F82C3099427C
:108F700020D1236A8BB994F82D1094F83000002981
:108F80000CBF03210221C8BBF023D372937803F0F6
:108F9000CF0393702046FFF7C3FEEFF30383103B2C
:108FA0005BB2C033214A52F823106FF3104142F8EC
:108FB000231038BDB3B9012924D094F82900002129
:108FC000D172D07094F82B200133013A84F82C3000
:108FD00084F82B20E1E7F0232046D3720121FFF72C
:108FE0009FFEDAE794F82D5005F0FF0145B1022B02
:108FF000E5D194F8290040F00100E0E7D372C9E719
:109000000846DCE72046FFF771FE94F82A30012B72
:1090100005D194F82800226994F82C30CFE7226912
:1090200094F82C30C9E700BFAC0A00200060004073
:10903000F0B583B0EFF30384103C64B2144B53F8E3
:109040002450EF68BFB16A682B6992F90D20121B9A
:1090500018BF0122CBB193E803006E4686E80300F7
:10906000696959601A701846B8472B691BB196E8B0
:10907000030083E80300C034064B53F824206FF349
:10908000104243F8242003B0F0BD6E463346E7E7B4
:10909000AC0A002000600040EFF30383103B5BB29A
:1090A0000649074A51F823100120C033087252F8CC
:1090B00023106FF3104142F823107047AC0A0020D0
:1090C00000600040F0B5C36A85B005460E461746FD
:1090D0009BB193E8070001AC84E807002A6B1A6093
:1090E0005F601E721846AB6A9847EB6A1BB194E842
:1090F000070083E8070005B0F0BD01AC2346EDE7AB
:1091000070B50123856880F820300226B323EB7107
:1091100080F821606B79C26904466FF300036B71BC
:109120000D46FFF7CFFFA368DE705A7942F00102C7
:109130005A7194F82120012A05D094F821200AB907
:10914000052D04D070BD042D01D0082DF5D194F863
:109150002320002AF6D194F821201AB95A7A02F075
:10916000F3025A72BF210122D97184F8232070BD05
:10917000836810B4A0220024DA7180F8204080F8BF
:1091800022405A7964F300025A7190F824206AB997
:10919000DF249F221C701A7000240223C26980F809
:1091A0002130C4615DF8044BFFF78CBF5C72F3E7BC
:1091B00030B583B0EFF30383103B5BB2C033424A58
:1091C00052F823106FF3104142F82310EFF303839A
:1091D000103B5BB23D4A52F8234094F82220A3682A
:1091E000AAB9012284F82220DA7CD2B28DF80520B7
:1091F0009DF8052012F0010F5A7A14BF02F0F70211
:1092000002F0F3025A72AC22DA7103B030BD94F866
:1092100020204AB91B7A13F0080F0CBF0421082143
:109220002046FFF76DFFA368226962B1A1698A42F7
:109230001DD0E268DB7C481CA0615354E369013314
:10924000E36103B030BDD97CC9B28DF806109DF83A
:109250000610197941F010011971197941F00801CE
:109260001971197962F30411197103B030BD022527
:1092700084F821505979E2696FF300015971204651
:109280000621FFF71FFFA3682169DD705A7942F0BC
:1092900001025A7191B9DA7CD2B28DF807209DF89B
:1092A00007201A7942F010021A711A7942F0080266
:1092B0001A711A7961F304121A71A6E7A269E168BA
:1092C000DB7C501CB8E700BF00600040AC0A002007
:1092D00038B5EFF30383103B5BB2C033224A52F838
:1092E00023106FF3104142F82310EFF30383103B78
:1092F0005BB21E4A52F8234094F8203093B194F8A0
:10930000213003F0FF0263B9A3692069A168984284
:109310000DD0E269E0680132C05C88740133C4E9B1
:10932000063238BD05212046FFF7EAFEE7E723684D
:109330000D4893F90E3003F1C004002B50F824506F
:1093400062F3104540F8245009DB5A09603203F0FB
:109350001F030120064C00FA03F344F82230CB79B6
:1093600043F04003CB7138BD00600040AC0A0020E0
:1093700000E100E038B5EFF30383103B5BB2204A15
:1093800052F82340A1680B79C3F38003BBB1CB79BA
:109390006FF38613CB71C02301E0013B02D0CA7981
:1093A0005206FAD4EFF30383103B5BB2C033154A85
:1093B00052F823106FF3104142F8231038BD0225F4
:1093C00084F821504879E26963F30000487107216D
:1093D0002046FFF777FEA168CD704B7943F001037B
:1093E0004B7194F82130002BD1D1A369E269E06878
:1093F0000132C05C88740133C4E90632C7E700BF9C
:10940000AC0A00200060004000B583B0EFF3038396
:10941000103B5BB2214A52F823008268537ADBB2D8
:1094200099072FD113F00C0F1FD0012380F824309F
:1094300090F82130012B2ED0026983699A4228D9F5
:10944000C369013BC3610321FFF792FEEFF303837E
:10945000103B5BB2C033124A52F823106FF3104135
:1094600042F8231003B05DF804FBDB06EED5D37C95
:10947000DBB28DF807309DF80730D37903F0EF03A6
:10948000D371E3E7002380F824300121FFF770FE59
:10949000DCE70321D8E70221D6E700BFAC0A0020B1
:1094A0000060004030B5836B83B004460A46ABB120
:1094B00093E803006D4685E80300E16B19601A71BB
:1094C0001846636B9847A36B1BB195E8030083E8CC
:1094D0000300002384F82B3003B030BD6D462B46CB
:1094E000EBE700BF2DE9F04FD0F800800469D8F811
:1094F0002450D8F804A095F800E095F801B0DFF802
:1095000068C1DFF86891DFF868811F2626705F2741
:10951000DF26277026702F799DF9286047F0E00735
:109520002774EF7847F0E0076774AF789DF924500F
:10953000BEF1010F4FEA07170CBF4FF0050E4FF0B9
:10954000040E07F070074EEA4B0E47F00807A770AD
:109550000CEB060BCA450CBF4FF0F7094FF077092B
:109560005FFA8EFE4FF0000AB327090184F803E08A
:10957000C9B284F8059006F1C00E84F806A0E77120
:10958000384F8BF8001348F8260057F82EB04FEAF2
:1095900056194FEA89096AF3104B09F1604947F8F7
:1095A0002EB009F561494FF0010E06F01F060CEBD5
:1095B000030B0EFA06F6C9F88061C9F8006003F1E2
:1095C000C0098BF800135E0948F8230057F829B04A
:1095D000B60006F1604606F5614603F01F036AF324
:1095E000104B0EFA03F347F829B00CEB0509C6F847
:1095F0008031336005F1C00389F800136E0948F823
:10960000250057F82390B60006F16046944406F50D
:1096100061466AF3104905F01F0547F823900EFADA
:1096200005F502F1C009C6F8805135608CF80013C9
:1096300048F8220057F8291053099B0003F16043B2
:109640006AF3104147F8291003F5614302F01F0245
:109650000EFA02F29F20C3F880211A602070BDE844
:10966000F08F00BF0060004000E100E040420F00CA
:10967000AC0A0020C369026913B990F82C308BB191
:1096800030B5044683B0A1B994F82630A16984F8B6
:1096900028300023E36184F82C30B3232162D37196
:1096A00003B030BD90F82B30002BE9D1B323D37138
:1096B000704700680023D37190F9115090F90E2083
:1096C000417B90F90F30019590F9100000902046F1
:1096D000FFF708FF2269D7E710B483B0EFF30383E5
:1096E000103B5BB2C033474A52F823106FF310416E
:1096F00042F82310EFF30383103B434A5BB252F866
:10970000233093F82D10DA69B1B9986919690128E5
:1097100003D9087940F040000871012A27D0CA7C9B
:10972000D2B28DF8072001229DF8071083F82D2072
:1097300003B05DF8044B7047002AF9D0032A1FD00C
:10974000022A23D0012A2BD019691A6A5869C97CC8
:109750008154D3E907210131013AC3E90721002AE5
:10976000E6D119690B7962F386130B71E0E70A7988
:1097700042F010020A710A7942F008020A71CEE73B
:1097800019690A7942F040020A71DEE719690A791B
:1097900042F010020A710A7942F008020A71D4E715
:1097A00093F82A1029B31968184C91F90F10480939
:1097B000203001F01F0102FA01F144F82010BFF33C
:1097C0004F8FBFF36F8F1969C87940F08000C8715F
:1097D000087940F010000871087904246FF3C30081
:1097E00008714C7048796FF30000487183F82C20A1
:1097F000ABE719694A7A082002F0F7024A7248700A
:10980000A3E700BF00600040AC0A002000E100E0D8
:1098100010B4EFF30383103B5BB2C033344A52F809
:1098200023106FF3104142F82310EFF30383103B32
:10983000304A5BB252F8233093F8272092B193F864
:10984000260093F8281003283DD0186993F8244087
:1098500084740131013A83F8281083F827205DF8D9
:10986000044B704793F82920002AF8D1DA69186967
:1098700082BBC2796FF3C712C271C02201E0013A04
:1098800002D0C179C909FAD11B68194A93F910307D
:1098900003F1C001002B52F821406FF3104442F84D
:1098A000214009DB5A09603203F01F030121124CE9
:1098B00001FA03F344F82230C3795DF8044B43F016
:1098C0004003C37170470229BFD193F830000028CC
:1098D000C5D0BAE7196A5C69013A645C84740131E5
:1098E000C3E90721002AC4D05DF8044B704700BFCC
:1098F00000600040AC0A002000E100E030B4EFF36B
:109900000383103B2A4A5BB252F8233093F8292094
:109910001AB193F82720012A45D0DA69CAB119692A
:10992000CB796FF38613CB71C02301E0013B02D0EA
:10993000CA795206FAD4EFF30383103B5BB2C0330B
:109940001C4A52F823106FF3104142F8231030BC28
:10995000704793F82A10F1B11968174D91F90F105B
:1099600048092030012401F01F0104FA01F145F8F3
:109970002010BFF34F8FBFF36F8F1969C87904258B
:1099800040F08000C8714D70487962F30000487162
:1099900083F82C40C4E719694B7A082203F0F703D7
:1099A0004B724A70BCE793F83020002AB5D1B6E775
:1099B000AC0A00200060004000E100E038B5EFF3A1
:1099C0000383103B5BB2344A52F823402269537A36
:1099D000DBB2E021DD06517203F003011AD55078A5
:1099E000400637D401252946204684F82B50FFF73E
:1099F00041FE29462046FFF755FDEFF30383103B58
:109A00005BB2C033254A52F823106FF3104142F87D
:109A1000231038BD0029E5D119070FD594F82B3054
:109A2000002B33D194F82910B323002914BF02214D
:109A30000321D3712046FFF735FDDEE794F82C10A3
:109A40000029DAD05B07D8D594F82B300121002B00
:109A5000F0D1E7E70029C5D151784D06C1F3801058
:109A6000DAD5236884F82B00596A537A09780129DA
:109A700003F0F7030CBF032102210820537250703A
:109A8000D170537943F001035371B6E700212046AA
:109A9000FFF7F0FD0121CDE7AC0A00200060004097
:109AA0000346D3E902230020536070470346D3E9FD
:109AB0000123D269F0B4D2E90347D2E9011556690E
:109AC00045F0004544F0004441F000425D61002053
:109AD0009C611A615F629E62F0BC7047D0E901230D
