:10400000007F0020B94A0000A9490000B54A00001D
:10401000B54A0000B54A0000B54A0000B54A0000A4
:10402000000000000000000000000000B54A000091
:10403000B54A000000000000B54A0000B54A000083
:104040000000000000000000000000000000000070
:104050000000000000000000000000000000000060
:104060000000000000000000000000000000000050
:104070000000000000000000000000000000000040
:104080000000000000000000000000000000000030
:104090000000000000000000000000000000000020
:1040A0000000000000000000000000000000000010
:1040B0000000000000000000000000000000000000
:1040C00010B5054C237833B9044B13B10448AFF352
:1040D00000800123237010BD1001002000000000AB
:1040E00038FB000008B5034B1BB103490348AFF38D
:1040F000008008BD000000001401002038FB000013
:1041000038B5064C06490546204600F001F9E9B2EB
:104110002046BDE8384000F009B900BF2C0100205E
:104120003CED000010B5044C204600F09CF9204600
:10413000BDE8104000F0EEB82C01002038B5074C67
:1041400007490546204600F0E3F8E9B2204600F0B2
:10415000EDF8BDE83840FFF7E5BF00BF2C010020B7
:104160003CED000010B50446007802F09FF8A379FA
:10417000003018BF01208342607102D002F058F96C
:10418000A06002F055F9A368C01A322813D96379E8
:1041900022799A420FD023713BB90D20012102F000
:1041A00079F801206379A37110BD00210D2002F080
:1041B00071F8FFF7B7FF0020F4E7FFFF08B51348D9
:1041C000FFF7D0FF10B17420FFF79AFF1048FFF7F8
:1041D000C9FF10B16D20FFF7B1FF0E48FFF7C2FF16
:1041E00010B17620FFF7AAFF0B48FFF7BBFF10B115
:1041F0006820FFF7A3FF0948FFF7B4FF20B165204F
:10420000BDE80840FFF79ABF08BD00BF18000020B6
:1042100024000020300000200C00002000000020BE
:1042200008B54FF4E131114803F01FFF01210D20C3
:1042300002F018F80E4B0221187802F013F80D4B1B
:104240000221187802F00EF80B4B0221187802F0C8
:1042500009F80A4B0221187802F004F8084B0221F1
:104260001878BDE8084001F0FDBF00BF2005002020
:104270001800002024000020300000200C00002046
:1042800000000020002070477047F8B506460C4635
:104290008F180025BC420AD014F8011B0D29F9D053
:1042A000336830461B68984708B10135F2E7284665
:1042B000F8BDFFFF70B500234360104E104B036044
:1042C0003378BFF35B8F13F0010504460CD1304601
:1042D00005F0BFFD40B10B4B0B4A5A6030462F2210
:1042E0001D601A8105F0C1FD00F0CCF8054900F011
:1042F000EBF8064B2361204670BD00BF4001002053
:104300002CED000044010020F4EC00003CED000026
:1043100001617047704710B50C4600F0B3F82246B3
:1043200008230221BDE8104000F0EAB8872910B543
:1043300021D97831C9B2837A8B4216D0C37A8B42A5
:1043400013D0037B8B4210D0437B8B420DD0837BF9
:104350008B420AD0C37B8B4207D000F10A020023B4
:1043600012F8014B84BB0344997200F10801FFF776
:10437000D2FF012010E00A0608D50123803903FA94
:1043800001F1037A194301720021D4E70369595CF2
:1043900019B901234360002010BD01F0C003C02BF8
:1043A00009D1037A43F04003037201F03F0132293F
:1043B00008BF6421BFE70B0641BF037A43F0020345
:1043C000037201F07F01F2E70133062BC8D1E0E769
:1043D000872938B514D97831C9B200F10A0300F140
:1043E0001002002419B11D788D4208BF1C700133E2
:1043F0009342F7D100F10801FFF78DFF012038BD8E
:104400000A0608D5803901238B40017A21EA03018D
:1044100001720021E1E70369595CB1B101F0C00309
:10442000C02B09D1037A23F04003037201F03F014E
:10443000322908BF6421D0E70B0641BF037A23F07D
:104440000203037201F07F01F2E70846D7E770B577
:1044500005460E46FFF76AFF314604462846FFF739
:10446000B7FFE0B270BD0146002343818381C38161
:1044700001F8083FFFF74FBF0148FFF71BBF00BF20
:104480002C01002038B5094D2C78BFF35B8F14F058
:10449000010409D1284605F0DCFC28B1044B28466C
:1044A0001C805C6005F0E1FC014838BD5001002033
:1044B0005401002010B50446FFF7E4FF0388236091
:1044C000FFF7E0FF406810BD38B50D4601882B8925
:1044D0001944044689B20180406809F015FB2A8915
:1044E000238860609B1A69681844BDE8384009F069
:1044F00037BAFFFF014B01221A7070473C000020C1
:1045000010B5054C20780028FCD000209BB220700C
:1045100001F0A0FF10BD00BF3C00002004F05CB81B
:1045200008B501F039FF002008BDFFFF08B50B4BAF
:104530004AF20252A3F8FE23094A282111604FF4DF
:104540002542A3F8FE230121152001F08BFE012155
:104550001520BDE8084001F09DBE00BF00E001400D
:1045600001E5014037B5FFF7D9FF01210D2001F02A
:1045700079FE00210D2001F08DFE684607220321FF
:1045800004F066F8BDF800301C4CC3F38413012519
:10459000684607220521E55404F05AF8BDF80030BA
:1045A000C3F38413684607220621E55404F050F84B
:1045B000BDF80030C3F38413684607220921E5548F
:1045C00004F046F8BDF80030C3F3841368460722B0
:1045D0000A21E55404F03CF8BDF80030C3F384131D
:1045E00007220B216846E55404F032F8BDF800308C
:1045F000C3F38413E55403B030BD00BF660100204F
:104600000B0A1B0153FA81F1034B53F82130C3F31A
:10461000400313700020704700080440C8B2012313
:10462000834098B252B10023090A490101F1804147
:1046300001F5802103438B60002070471B04104666
:10464000F2E700BFF8B500283BD009681E4F4FF0D5
:10465000000C01EBC00066464FF0010E8D8840F261
:10466000024295424FF000030BD10C680EFA03F2A0
:1046700004F0B854D2B2B4F1807F0CBF164342EAC2
:104680000C0C0133032B06D037F813209542ECD0E5
:104690000133032BF8D108318142DFD16FEA0C0CD2
:1046A0005FFA8CF4012000F0DFF9084B93F8BB248B
:1046B0001643264083F8BB640120BDE8F84000F0B3
:1046C000A3B90646FF24EDE7F8EF000000E0014043
:1046D000F0B585B004AB02A843F80C0D01260C46DA
:1046E000304619461546ADF80C400292ADF8006010
:1046F000FFF7A8FFEFF3108186F310881B4B1A68B1
:104700001AB91B484026C270C6701A6801321A6076
:1047100081F31088200AEA03E4B24FEA00100BD5B7
:104720000119144A52F8217025F480366FF31047AE
:1047300042F8217042F8216020440E4A42F820508D
:10474000EFF31082012181F31088196811B1196803
:10475000013919601B681BB905498020CB70C870EE
:1047600082F31088002005B0F0BD00BFE80E0020E5
:10477000000D04400008044070B582B0EFF30384DC
:10478000103C164B164964B253F8242056799568AC
:104790008B5D03F00303032B0FD0C03451F824309A
:1047A0006FF3104341F824302DB102A8D36840F8CC
:1047B000083D0196A84702B070BD2DB102A8D3688C
:1047C00040F8083D0196A847C034054B53F8242013
:1047D0006FF3104243F8242002B070BDEC0E0020AD
:1047E000006000400C4A92F8363063B10A4A92F8F1
:1047F000A030D906FBD4084982F8A00091F8A03077
:10480000DB06FBD4704792F83C30DB07EED492F81D
:104810003C30DB07F7D5E9E700E00140064B0749EC
:1048200093F826001A6A51F820300549C2F3026253
:10483000D3400B60704700BF00E00140F80000204B
:10484000740F002070B5374C374B3848384A6260D7
:10485000384900224AF20355A3F8FE53A0F800217C
:1048600021604FF4004193F82600E2606261A1608C
:104870002161196A54F820202F4DC1F30261CA400A
:10488000082009212A6083F8130483F8A21093F802
:104890008024002A3BD0244B002083F8810483F835
:1048A000800493F8A030002B39D11F4B002283F8ED
:1048B000362093F83C20D207FBD5012100201F4A67
:1048C00083F8311083F826001A6293F82620186ABC
:1048D00054F82220154CC0F30260C2402A6004261E
:1048E00084224FF4254083F83E6083F83E2083F80D
:1048F000D0102246A3F8FE03A4F80411B2F8043144
:104900009BB2002BFAD10123A2F8003170BD012126
:1049100083F8801440F2C44000F018F8BBE7FFF7BA
:1049200061FFC2E7F800002000E0014000C0014044
:1049300000127A00006CDC02740F002000010110EC
:10494000A0F101000028FBD1704700BF144B70B4E8
:1049500001FB00F14FF47A761B681248B0FBF3F0CC
:10496000A1FB064500234FF0FF32AB4208BFA24235
:1049700006D3B4FBF0F0800880B170BCFFF7E0BF55
:104980008000B1FBF0F0A0FB06018B4208BF824221
:10499000F2D24FF0FF3070BCFFF7D2BF70BC70474F
:1049A000740F002000CA9A3B0B4B70B5B3F840510E
:1049B0000A4E0024ADB225FA04F3DB07E0B203D5BA
:1049C00056F8243003B198470134102CF3D1024B30
:1049D000A3F8305170BD00BF00600040A80E002059
:1049E000074830B4074D00F1200403461A1A13F8A3
:1049F000011BC032A34245F82210F7D130BC7047EA
:104A0000ADF1000000600040EFF31081012383F35B
:104A10001088124B33F8102092B22AB133F81020CC
:104A2000013A92B223F8102033F810309BB28BB9C0
:104A30000B4A10B40B4CB2F8FE3334F8100043F4B8
:104A4000254323EA0003A2F8FE3381F310885DF8C2
:104A5000044B704781F31088704700BF6C0F002033
:104A600000E0014000F0000030B4EFF310810123BA
:104A700083F310880C4A32F810309BB253B90B4CB8
:104A80000B4DB4F8FE3335F8105043F425432B4357
:104A9000A4F8FE3332F8103001339BB222F8103004
:104AA00081F3108830BC70476C0F002000E001409B
:104AB00000F0000000BE704708B500F005F8FFF7F1
:104AC0002FFDFEE7704700BF70B5434A434B444C8F
:104AD0004FF470054AF202500121C2F8885082B0AA
:104AE0009460A3F8FE031A4683F81F1492F8B134B9
:104AF000DB06FBD500204FF425460446A2F8FE63F2
:104B0000FFF7E0FFFFF79EFE8DF8074001209DF8BC
:104B10000730FFF7A9FFEFF31082012585F3108816
:104B2000304B996821F000419960996882F31088B0
:104B30002D4A1168C1F300018DF807101168C1F307
:104B400000018DF807101268C2F300028DF80720EB
:104B5000EFF3108285F31088996841F00041996065
:104B60009B6882F310882846FFF74EFF2846FFF720
:104B7000A9FF1E4B1E499C801E801E4E9E601E4833
:104B80001E4E1F4ADE604FF48056A1F82061121AB3
:104B90009D80214608F0EFFE1A481B4A1B491C4D18
:104BA000121A08F0DDFE1B4B5B1BA3424FEAA30663
:104BB00005DD013455F8043B9847A642F9DCFFF7C0
:104BC0002DFE0220FFF77EFFFFF70AFF002002B054
:104BD000BDE8704000F020B800ED00E000E00140CA
:104BE00000400000FC6F044000080440000D00403D
:104BF00000600040007B002010010020007F0020AA
:104C00003C10002000000020F800002044FB0000C1
:104C1000D0000020EC000020704700BF064B074A80
:104C20001B6A1268C3F3026123FA00F08A4000F0A5
:104C3000070022FA00F0704700E00140740F0020E6
:104C400000220270C0E9012280F83520DF2282773D
:104C50007047FFFF2DE9F047044600261F469DF8E8
:104C60002830067021730375089B0361099B8361DB
:104C70000B9B03620C9BDFF82C81C0E90936FF23F4
:104C8000894643771546002A3ED184F835205020C6
:104C900005F0CEF84FF6FF73A0F8423000F1200A7D
:104CA000DF2380F8205080F8215080F8225080F8CF
:104CB0002350C0E90955C562C0E90E55C0E90C553D
:104CC00080F8443080F8453080F8405080F84150FA
:104CD000C0E91255C4F828A020222946064608F04B
:104CE0004AFE072FA66050D82C4AB9F1020FD35DB7
:104CF000114638D098F8000000284CD1002B44D140
:104D000002232777D3553EE0012A3ED184F835208F
:104D1000242005F08DF88378067066F30203837013
:104D20004378C57003F0F80366F30613012F437050
:104D3000067146718671A062606026D8184BB9F181
:104D4000020FDA5D194602D098F8000028B1012A56
:104D50001BD802232777CB5515E0B2B90222DA55CA
:104D60002777257011E0012BF3D92777384601F01A
:104D7000E9F93022816A504608F0F2FD384601F028
:104D8000E1F9036BA36101232370002388F800304D
:104D90002078BDE8F087012BDAE700BF660100202C
:104DA000640100206E0100202DE9F84F2DED028BEB
:104DB00090F8355004468A46002D40F098802846E9
:104DC000FFF72CFF07EE900AB8EE678A28EE008AFC
:104DD00018EE100A05F0BCF980465046894605F0E9
:104DE00095F906460F4602460B464046494605F0F1
:104DF00079FC30B1BCEEC88A84ED0B8A84F834505B
:104E000071E00022624B4046494605F0F9F98246BE
:104E10008B4602460B463046394605F081FC40B1D0
:104E20005046594605F086FC0223E06284F834308F
:104E300059E00022574B4046494605F0E1F98246C9
:104E40008B4602460B463046394605F069FC30B1C8
:104E50005046594605F06EFC0423E062E6E7002266
:104E60004D4B4046494605F0CBF982468B460246FB
:104E70000B463046394605F053FC30B15046594692
:104E800005F058FC0623E062D0E70022434B404681
:104E9000494605F0B5F982468B4602460B46304638
:104EA000394605F03DFC30B15046594605F042FC0C
:104EB0000823E062BAE70022394B4046494605F034
:104EC0009FF98046894602460B463046394605F032
:104ED00027FC30B14046494605F02CFC0A23E0622D
:104EE000A4E700232370BDEC028BBDE8F88F012DF1
:104EF000F9D10820FFF792FE07EE900AB8EE678A14
:104F000028EE008A18EE100A05F022F906465046EF
:104F10000F4605F0FBF88046894602460B463046B0
:104F2000394605F0DFFB28B1BCEEC88A002384EDCA
:104F30000B8A7BE700221B4B3046394605F060F9AF
:104F400082468B4602460B464046494605F0E8FB42
:104F500028B15046594605F0EDFBE0624EE70022CD
:104F60004FF07F533046394605F04AF906460F4662
:104F700002460B464046494605F0D2FB0028B0D019
:104F80003046394605F0D6FB0323E0624EE700BF0A
:104F90000000D03F0000B03F0000903F0000703F95
:104FA0000000503F0000E03FF0B52DED028B1D46A4
:104FB0000123F7EE007A9D4287B004460E4617465D
:104FC000B0EE608A037087EE800A3DD890F83530E5
:104FD000002B39D14FF0FF31FFF7E6FEB5EEC08A66
:104FE000F1EE10FA34DBDFED1C7AB4EEE78AF1EE75
:104FF00010FA2DD8D4ED0B7AF8EE677A67EE887A3E
:1050000017EE900A05F0A4F80022144B05F022FADE
:1050100005F090FB206323788BB10F9B04930E9BCC
:10502000039394F834300293236B0193E36A009363
:105030003A462B4631462046FFF70CFE207020787A
:1050400007B0BDEC028BF0BD4FF6FF712046C3E701
:1050500000232370DFE700BF0000C8420000594072
:1050600007B590F835303BB96946806807F076FCA3
:10507000009803B05DF804FB012B05D14068694638
:10508000083008F083F9F3E70020F2E71FB590F845
:1050900035303BB901A9806807F03EFC029805B0A5
:1050A0005DF804FB012B05D1406801A9083008F028
:1050B00007F9F3E70020F2E738B590F835300446F9
:1050C0008BB9806808B9002038BD04F10C0107F0E5
:1050D000F1FC0546A06807F007FC0E2D01D0002D5D
:1050E000F1D10120F0E7012BEDD140680028EAD092
:1050F00004F10C01083008F027F805466068083014
:1051000008F0D4F8E9E708B590F835303BB9806885
:1051100020B107F0E3FBB0FA80F0400908BD012B95
:1051200006D140680028F9D0083008F09DF8F2E771
:105130000020F3E708B590F835303BB9806820B11E
:1051400007F05CFCB0FA80F0400908BD012B06D1E5
:1051500040680028F9D0083008F02AF9F2E700206A
:10516000F3E7FFFF38B50446FFF7E4FF606838B1A6
:10517000237F0C4A00252421D55404F081FE65606C
:10518000A56875B1237F084AA86C0021D15410B1DD
:10519000202104F075FE5021284604F071FE002302
:1051A000A36038BD640100206601002010B50446EC
:1051B000FFF7D8FF204610BD00F1C0020A4B53F89C
:1051C00022106FF3104143F8221000F01F02400933
:1051D000800000F1604000F5614001239340C0F879
:1051E00080310360704700BF006000404309012226
:1051F00000F01F0002FA00F02033044A42F82300B6
:10520000BFF34F8FBFF36F8F704700BF00E100E027
:105210007047FFFF0028A7BF00F1604000F5614024
:1052200000F00F00034BABBFC023C02280F8003357
:105230001A54704714ED00E038B50A4D2B78BFF3CF
:105240005B8F13F001040BD1284604F002FE38B145
:10525000054B28461C6004F008FE044801F09FF846
:10526000014838BD70010020740100201152000077
:105270002AB9304BC031012243F821207047012A5E
:1052800003D1C0312B4B0222F6E7022A03D1C031F1
:10529000284B0322F0E7032A03D1C031254B042217
:1052A000EAE7042A03D1C031224B0522E4E7052AAC
:1052B00003D1C0311F4B0622DEE7062A03D1C031DD
:1052C0001C4B0722D8E7072A03D1C031194B08220B
:1052D000D2E7082A03D1C031164B0922CCE7092AAC
:1052E00003D1C031134B0A22C6E70A2A03D1C031C9
:1052F000104B0B22C0E70B2A03D1C0310D4B0C22FF
:10530000BAE70C2A03D1C0310A4B0D22B4E70D2AAB
:1053100003D1C031074B0E22AEE70E2A03D1C031B4
:10532000044B0F22A8E70F2AA8D1C031014B10224D
:10533000A2E700BF0060004032B9C031074B1E2217
:1053400043F8212001207047012A05D1C031034BC9
:10535000212043F82100F5E700207047006000405D
:105360002AB9064BC031362243F821207047012A62
:10537000FCD1C031014B3B22F6E700BF006000408A
:105380002AB9064BC031352243F821207047012A43
:10539000FCD1C031014B3A22F6E700BF006000406B
:1053A0002AB9064BC031372243F821207047012A21
:1053B000FCD1C031014B3C22F6E700BF0060004049
:1053C0002AB9064BC031382243F821207047012A00
:1053D000FCD1C031014B3D22F6E700BF0060004028
:1053E0002AB90C4BC031992243F821207047012A79
:1053F00003D1C031074B9F22F6E7022A03D1C03107
:10540000044BA422F0E7092AF0D1C031014BA922B4
:10541000EAE700BF006000402AB90C4BC031982277
:1054200043F821207047012A03D1C031074B9E2247
:10543000F6E7022A03D1C031044BA322F0E7092A80
:10544000F0D1C031014BA822EAE700BF0060004064
:105450002AB90C4BC0319A2243F821207047012A07
:1054600003D1C031074BA022F6E7022A03D1C03195
:10547000044BA522F0E7092AF0D1C031014BAA2242
:10548000EAE700BF006000402AB90C4BC0319B2204
:1054900043F821207047012A03D1C031074BA122D4
:1054A000F6E7022A03D1C031044BA622F0E7092A0D
:1054B000F0D1C031014BAB22EAE700BF00600040F1
:1054C0002AB9064BC031AE2243F821207047012A89
:1054D000FCD1C031014BB322F6E700BF00600040B1
:1054E0002AB9064BC031AD2243F821207047012A6A
:1054F000FCD1C031014BB222F6E700BF0060004092
:105500002AB9064BC031B12243F821207047012A45
:10551000FCD1C031014BB622F6E700BF006000406D
:105520002AB9064BC031B02243F821207047012A26
:10553000FCD1C031014BB522F6E700BF006000404E
:105540002DE9F84FAD4B9E6805461446403672B6BD
:10555000012940F08E80002A00F098809368213362
:1055600040F08580036812681A441F2A00F21384F1
:105570006268DFF8A48246F82320C033332248F85B
:10558000232090F90000FFF731FE95F90030C03379
:1055900058F823206FF3104248F8232095F90000B3
:1055A000FFF738FE95F90000FFF706FE2B686168EB
:1055B000A3605A1CC1332A6046F82210342248F8EE
:1055C000232095F90000FFF711FE95F90030C03354
:1055D00058F823206FF3104248F8232095F9000073
:1055E000FFF718FE95F90000FFF7E6FD2B686168EC
:1055F0005A1CC1332A6046F82210312248F8232071
:1056000095F90000FFF7F2FD95F90030C03358F826
:1056100023206FF3104248F8232095F90000FFF78C
:10562000F9FD95F90000FFF7C7FD2B6861685A1C6A
:10563000C1332A6046F82210322248F8232095F917
:105640000000FFF7D3FD95F90030C03358F8232050
:105650006FF3104248F8232095F90000FFF7DAFDB8
:1056600095F90000FFF7A8FD2B6801332B6001249A
:105670000CE002290ED14AB193682133F7D10068BA
:10568000146804441F2C8CBF0024012462B62046F9
:10569000BDE8F88F032910D1002AF7D092F9123013
:1056A0002133E4D10E2353740168554B917446F8AD
:1056B0002130127CFFF740FED6E7042944D1002AAE
:1056C000E4D092F9073021332DD10C27977101686E
:1056D0004C4BD17146F821301278FFF781FE0168FA
:1056E000494B013101606172277246F821302278FE
:1056F000FFF7AEFE0168454B013101606171277112
:1057000046F821302278FFF787FE0168404B0131CF
:105710000160A772E17246F821302278FFF7B4FEEB
:1057200003680133036094F90700FFF745FD94F91E
:105730000900FFF741FD94F90500FFF73DFD94F9DD
:105740000B00FFF739FD92E7002940F09480002A12
:105750009CD0137A3BBB126892F90D3021331ED1D5
:105760000C231373036853732A4A46F82320C0336B
:10577000294A262142F823102368606893F90D1006
:105780001B7B01F160421B0102F56142DBB282F832
:105790000033224B43F821002B6801332B60236830
:1057A00093F90D00CDE7012B3AD1126892F90F3031
:1057B00021331ED10C2393730368D373154A46F823
:1057C0002320C033144A272142F82310236860683D
:1057D00093F90F109B7B01F160421B0102F56142BE
:1057E000DBB282F800330D4B43F821002B68013304
:1057F0002B60236893F90F00A3E700BF00ED00E0E2
:1058000019D4000089B60000E5B8000069B70000AF
:1058100025B900006DBE000000600040EC0E0020C5
:10582000022B40F0B882126892F9113021331ED158
:105830000C23137403685374984A46F82320C0332A
:10584000974A282142F823102368606893F91110C1
:105850001B7C01F160421B0102F56142DBB282F860
:105860000033904B43F821002B6801332B602368F1
:1058700093F9110065E7052964D1002A3FF406AFCA
:10588000576892F808A00C237B7397F90F302133E7
:1058900049D10168844BF973524646F82130FFF72D
:1058A0005FFD824C90F90030DFF8F881E2184FF08C
:1058B000C00982F80093016848F8237001317C4BDD
:1058C00001605246B97346F82130FFF759FD90F94F
:1058D0000030E21882F80093016848F82370013123
:1058E000744B01605246397446F82130FFF758FD79
:1058F00090F90030E21882F80093016848F82370AC
:1059000001316D4B01605246797446F82130FFF742
:1059100057FD90F900301C4484F8009348F8237038
:1059200003680133036097F90F00FFF745FC97F90F
:105930000E00FFF741FC97F91000FFF73DFC97F9C7
:105940001100FEE606294FD1002A3FF49FAE5768AA
:1059500092F808A00C237B7397F90F30213338D1CC
:105960000168564BF973524646F82130FFF738FD6F
:105970004E4C90F90030DFF82C81E2184FF0C0094E
:1059800082F80093016848F8237001314C4B0160A4
:105990005246B97346F82130FFF73EFD90F90030CA
:1059A000E21882F80093016848F823700131454BF2
:1059B00001605246397446F82130FFF749FD90F9ED
:1059C00000301C4484F8009348F8237003680133C6
:1059D000036097F90F00FFF7EFFB97F90E00FFF751
:1059E000EBFB97F91000ACE6072941D1002A3FF400
:1059F0004DAE40F60C43138292F90D30213328D17D
:105A00000168314B517346F821301278FFF7A8FC3A
:105A100001682E4B01310160217346F82130227854
:105A2000FFF7AEFC01682A4B01310160A17346F813
:105A300021302278FFF7B4FC0168264B0131016068
:105A4000E17346F821302278FFF7BAFC036801338E
:105A5000036094F90D00FFF7AFFB94F90C00FFF71A
:105A6000ABFB94F90E00FFF7A7FB94F90F0068E673
:105A7000082933D1002A00F08E8192F902302133B7
:105A80007FF4F5AD0C2353700168134B917046F809
:105A900021301278FFF7ECFBE6E500BFD5BE000031
:105AA00000600040EC0E00204DC6000000E100E068
:105AB00015C5000039C70000F9C70000DDBB0000B4
:105AC000BDBB00007DBD00000DC10000EDBF0000AA
:105AD000B1C1000045C2000079470000092974D116
:105AE000002A3FF4D3AD576897F90230213361D1D2
:105AF00092F808A00168A94BD2F80090B9704FF055
:105B0000060B87F806B0524646F82130FFF7D8FC5E
:105B1000A34C97F90220BB79DFF8B082A1181B01D2
:105B2000DBB281F8003301689E4B48F822900131C6
:105B300001605246797087F805B046F82130FFF7CA
:105B4000CFFC97F901207B79A1181B01DBB281F80A
:105B500000330168944B48F82290013101605246AD
:105B6000397187F808B046F82130FFF7D9FC97F96A
:105B700004203B7AA1181B01DBB281F800330168D5
:105B80008A4B48F82290013101605246F97087F83B
:105B900007B046F82130FFF7B3FC97F90320FB79F3
:105BA00014441B01DBB284F80033036848F82290E8
:105BB0000133036097F90200FFF7FEFA97F901003D
:105BC000FFF7FAFA97F90400BBE50A2978D1002A11
:105BD0003FF45CAD576897F90230213361D192F8F8
:105BE00008A00168724BD2F80090B9704FF0060B14
:105BF00087F806B0524646F82130FFF7F1FB684CB3
:105C000097F90220BB79DFF8C481A1181B01DBB230
:105C100081F800330168674B48F822900131016038
:105C20005246797087F805B046F82130FFF7F4FB4B
:105C300097F901207B79A1181B01DBB281F80033B1
:105C400001685D4B48F8229001310160524639717C
:105C500087F808B046F82130FFF716FC97F90420C2
:105C60003B7AA1181B01DBB281F800330168534B6A
:105C700048F82290013101605246F97087F807B068
:105C800046F82130FFF7E4FB97F90320FB79144431
:105C90001B01DBB284F80033036848F8229001331B
:105CA000036097F90200FFF787FA97F90100FFF701
:105CB00083FA97F90400FFF77FFA97F9030040E5AC
:105CC0000B2968D1002A3FF4E1ACD2E900140C237F
:105CD000237594F91530213352D10368384A63751E
:105CE00046F82320226822B9C033364A4A2042F8B7
:105CF000230094F91500237D334F00F1604202F533
:105D000061421B01DBB282F800332A682F4B43F853
:105D10002010501C2860A07546F82070206820B91B
:105D2000C13228484D2740F8227094F91670227D20
:105D300007F1604000F561401201D2B280F8002303
:105D40002A6843F82710501C214F2860E07546F858
:105D50002070206820B9C1321A484E2640F82260CF
:105D600094F91760227D06F16040120100F5614050
:105D7000D2B280F8002343F826102B6801332B6041
:105D800094F91500FFF718FA94F91600FFF714FAC2
:105D900094F91700D5E4002478E400BF15AC0000A6
:105DA00000E100E089AB0000A9AD0000D1AC00002B
:105DB000D1B9000039BA0000E9BA0000ADBA00005C
:105DC000B5CE00000060004089CF0000EC0E00203E
:105DD000A5D00000F8B5094F054600240126AA6C9D
:105DE00006FA04F3134205D007EB440261B22846D9
:105DF00007F064FB01341D2CF1D1F8BD84010020B3
:105E0000837870B5044683B90E4D2A68AAB1038819
:105E10003BB90D48FFF7DEFF2B682078BDE87040E6
:105E20001847012BF8D10948F4E7012B05D00A2BBC
:105E300004D1074B1B68002BEFD170BD0B2BFCD19D
:105E4000044BF7E778010020C00100201C0200206D
:105E50007C01002080010020F0B5044685B00028B8
:105E600043D0002380F83230C1F38415836C0127BE
:105E700007FA05F21343836400F1300107F06AFC6E
:105E800004AE04F14801204607F020FB204607F04D
:105E900007FB06F8047D9DF80C30012B04D1314638
:105EA000204607F003FBF6E70DF10E0229462046D7
:105EB00007F004FB0E4BBDF80E0093F83330052BB2
:105EC0009CBF0C4AD2560C4B1B684FF0010101FAE3
:105ED00003F388BF00220093002301FA02F219465F
:105EE00000F07AF980B205B0F0BD4FF0FF30FAE76C
:105EF000C001002008F000004000002013B50A2275
:105F00000C46C1B2684602F0A3FBBDF800205AB1AE
:105F1000064B074902F4F040B0F5006F0CBF18467D
:105F20000846228002B010BD1046FAE71C0200208D
:105F3000C0010020F0B5012680F82560C0E90F23DC
:105F4000022600F12403002540F60C4780F8266065
:105F50000186DF26032143644FF4C05380F82450A8
:105F600080F8275080F8285080F8295080F82A605F
:105F700080F82B60878580F8325080F8331080F8E5
:105F8000345080F8355080F8366080F837600787E5
:105F9000C0E91255C0E91455A0F85850A0F85A307D
:105FA000F0BD10B50446406D10B1142103F068FF38
:105FB000204610BD37B50D28044602A998BF0E34FF
:105FC000002321F8023D2046FFF798FF074B0546C6
:105FD0004FF4004133F8340000F0E4F9BDF8061046
:105FE0002846FFF739FF03B030BD00BFBCEE00000C
:105FF000042838B598BF0E4B0E4C94BF1D5C00258D
:10600000204607F06FFB04F1300184F82850204649
:10601000094C07F09FFB204607F064FB84F82850EA
:1060200004F130012046BDE8384007F093BB00BFC3
:106030000EF00000C00100201C020020FFFFFFFF47
:106040002DE9F04D3A4B93F82830192B2DED028BAA
:1060500066D055D8012B60D0364CD4ED007AF5EEE1
:10606000407AF1EE10FA48D10020FFF7C1FF052079
:1060700000F0ACF90FF2B00BDBE900AB9FED2E8A1C
:10608000DFF8BC800A251420FFF794FF07EE900A82
:10609000F8EEE77A67EE887A17EE900A04F058F87F
:1060A00052465B4604F0ACF8D8F8003006460120B2
:1060B00098400F4604F03AF802460B4630463946FF
:1060C00004F0C8F9064620680F4604F041F802467D
:1060D0000B463046394603F0DDFE04F04BFB013D34
:1060E00007EE900A2060CED1F2EE046A87EEA67A1F
:1060F000052084ED007AFFF77BFF94ED000A08E0AD
:106100001D2B04D01F2BA7D1B0EE040A01E0B0EE86
:10611000000ABDEC028BBDE8F08D9FED080AF8E7A0
:10612000B7EE080AF5E700BF295C8FC2F5A820404A
:10613000C0010020780200203D0AB73F0000C07F68
:106140004000002030B5094B53F8144B00218C421D
:1061500007D053F8042F92F82450A84202D00131FE
:10616000F5E7002202F1080030BD00BF7C020020EC
:1061700038B50E4C0E4D0F48002322461946FFF746
:10618000D9FE002301210C48FFF7D4FE2846002445
:10619000214640F8044B142207F0EDFB5022214623
:1061A00005F1180007F0E7FB38BD00BF015E0000F5
:1061B0007C020020C00100201C02002008B5044819
:1061C000FFF7EFFE0348BDE80840FFF7EABE00BF57
:1061D0001C020020C001002010B5029C401AE41AE5
:1061E0006043521A90FBF2F0184410BD73B50025BD
:1061F000044680F830500D2268460E4602F028FA18
:10620000BDF800306363C3F3841203F4F043B3F5C5
:10621000006F84F838602574E5746574A57465753D
:1062200022750CD004F11003A361064BE361064B09
:106230002362064B6362064BA362064BE362204671
:1062400002B070BD21CD000011CE0000A1CD000034
:10625000ADCD0000DDCD00000E210148FFF7C6BF27
:10626000E4020020042911D8DFE801F0030C0A033E
:106270000E000022064B33F830100020FEF728BA3B
:106280001022F7E70422F5E78422F3E7704700BF06
:10629000BCEE0000044B0A1C18BF012233F830107A
:1062A0000020FEF7BBB900BFBCEE000007B5084BED
:1062B0000DF1070233F830100020FEF7A1F99DF828
:1062C0000700003018BF012003B05DF804FB00BFD9
:1062D000BCEE0000EFF31080012383F31088064B1F
:1062E000196819B9054AD1704021D1701A68013274
:1062F0001A6080F310887047E80E0020000D0440FB
:10630000184A38B50023938072B61749174A184CBB
:106310000A601859D0500433402BFAD1154D002390
:1063200002F140005C59C4500433802BFAD1124B67
:106330009A60BFF34F8F62B60B68104ADA6010495B
:10634000104A114802F0C8FCFFF7C4FFFEF70AF933
:10635000FFF776FE00F03EF8FDF762FFFDF72EFF37
:10636000FCE700BF000D004020030020007F00205C
:10637000004000004040000000ED00E0619300009C
:1063800020F0000013F0000023F00000014802F0AC
:106390000BBC00BF0406002008B5FFF7B1FF0020CA
:1063A0007047FFFF0A4601460148FEF791B900BF5A
:1063B000680E0020024A136801331360704700BF63
:1063C000600300204FF47A71FEF7C0BA0121FEF796
:1063D000BDBAFFFF13B5124C124A9FED130A00928B
:1063E000002301931946F6EE000A01222046FEF72B
:1063F000DBFDFEF721FF04F10C020321FFF7A0F8FB
:106400002046FEF759FE2046FEF72AFE2046FEF7FC
:106410007AFE2046FEF73AFE044B186002B010BD2B
:1064200024030020B56300000000FA445C03002050
:10643000014B1868704700BF600300200148FEF759
:10644000FFBB00BF240300200148FEF7AFBE00BF22
:10645000240300202DE9F047194F8C2505FB007A15
:106460000646894600209AF8011090461C4600F026
:106470006DFB10B355460835B9F1000F15D03F2C10
:106480008AF8089019D822464146681C07F068FA35
:106490000134A4B28C2000FB067023462A464178C2
:1064A000BDE8F047002000F06DBB402C05D8224627
:1064B0004146284607F054FAECE70020BDE8F08793
:1064C000640300208C220021014807F054BA00BF69
:1064D000640300200020FFF7F5BFFFFF2DE9F7431D
:1064E0000E4607467379032B114604D0002420463C
:1064F00003B0BDE8F0833279C2EBC2041234A4B217
:106500008C4205D9234B1B68DA07EFD500BEEDE7B7
:10651000214D95F801E0A846BEF1000FF2D196F8A2
:1065200000C006EB0C0191F80190B9F1210FE9D1FF
:10653000C5F8881016F80CC005F1010E0235CDF82B
:1065400004E00095614400F0CDFA0028DAD0B37978
:1065500098F80210012B04BFF37988F80330012367
:1065600088F80430B37888F80030D8F88830B3F869
:106570000730A8F806300029B9D04023074A38462A
:1065800000F000FB0028B2D1024B1B68DB07AED540
:1065900000BEACE7F0ED00E064030020AC03002097
:1065A00013782DE9F341154603F01F02012A064630
:1065B0000C4601D000246DE0DFF8C081AA8898F86D
:1065C0000010D2B291424746F4D113F060031FD0BD
:1065D000202BEFD16B78013B0A2BEBD801A252F8AC
:1065E00023F000BF576600001F6700002B67000004
:1065F000B5650000B5650000B5650000B565000033
:10660000B5650000B1660000FB660000376700005A
:10661000012C01D001243DE06A78062ACAD16A889B
:10662000120A212A0AD1D8F88820002AC2D0137869
:10663000294602B0BDE8F04100F028BE222AB9D1B7
:10664000184601F0B5FEB8F8063002462946304635
:1066500000F01CFE1EE0012CDCD1EB886988402B89
:106660004FEA1122184628BF402011F0FF0115D033
:10667000012B13D90138384B397280B200900020B9
:1066800001F0E2FF0444A4B25CB9344B1B68DB07A1
:1066900090D500BE204602B0BDE8F0810024304B0A
:1066A000ECE723462E4A2946304600F0EFFDB1E7DD
:1066B000012C05D1EB88402B3FF67CAF294AC5E77A
:1066C000032CA7D1EB886988402B4FEA112218468A
:1066D00028BF402011F0FF010DD0012B0BD997F8F6
:1066E00048308B4207D101381F4B80B20090002008
:1066F00001F0ACFF8EE71B4BF8E7012C8AD16988CB
:106700001A4B090A79712BB10020AFF300800028E1
:106710003FF450AF2946304600F0A0FD7AE7012C47
:106720007FF478AF2346124A90E7012C7FF472AFD2
:106730002346104A8AE7012CECD0032C7FF46AAF81
:1067400069880D4BC9B23971002B3FF463AF00204B
:10675000AFF300805EE700BF6D030020F0ED00E0C6
:106760006C030020AC030020AD03002000000000FB
:10677000690300206803002000000000640300207B
:1067800037B51A4CA2788A420546607813D0884201
:106790000AD1174A12B9012003B030BD9AB2154987
:1067A0000020FDF7A7FEF6E7134B1B68DB0700D5BB
:1067B00000BE0020F0E79042EBD000229BB21146D1
:1067C0001046009304F1480301F040FF402304F118
:1067D0004802A178284600F0D5F90028DBD1064B05
:1067E0001B68DA07E5D500BED6E700BF64030020CA
:1067F000F54400006C030020F0ED00E00B4B63B1AA
:106800000B4B1B78834206D90A4B1B6800EB4000F8
:1068100003EBC0007047C01AC0B2022803D800EBD7
:106820004000054BF4E70020704700BF0000000067
:10683000F4030020F003002084F0000070B5134D35
:10684000064600242B78E0B20233834210DA3B2262
:1068500000210F4807F08FF81022FF210D4807F0A4
:106860008AF81422FF210C48BDE8704007F083B875
:10687000FFF7C4FF013428B9084B1B68DB0700D5BC
:1068800000BE70BD436830469847DBE7F403002044
:10689000F5030020F803002008040020F0ED00E0DC
:1068A00070B50C4605461646086800F02FFD2368B3
:1068B000324628460121BDE870401847044B1B783A
:1068C00010B1184600F05CBF184600F06DBF00BF65
:1068D00054000020024B5878003018BF0120704748
:1068E000F5030020024B1878C0F38000704700BF0A
:1068F000F5030020024B1878FF3818BF01207047BD
:1069000054000020F8B51B4E3278FF2A05461FD1EF
:10691000194C1A483B22002107F02DF8201D03F0E6
:1069200000FA174B1C60174B23B11748AFF30080D8
:10693000164B1860144F00243B78E0B202338342B8
:1069400008DA2846357000F053FF284600F018FF9B
:10695000012009E0FFF752FF013430B90C4B1B68EE
:1069600013F0010304D000BEF8BD03689847E3E7C5
:106970001846F9E75400002044000020F5030020E9
:106980003004002000000000F4030020F003002089
:10699000F0ED00E0F0B54378023B85B005460C46CB
:1069A000032B12D8DFE803F0026F242C374B1A7840
:1069B0006FF300021A701A7800216FF341021A7007
:1069C00059701A7861F382021A70314B1E6814B93B
:1069D0003368204698472946301D03F079F905466B
:1069E00014B9336801209847002D46D005B0F0BD9A
:1069F000264B1A78D607F9D51A7842F00402E3E755
:106A0000224A1378D807F1D513786FF382031370F5
:106A1000DBE7FFF7F3FE20B1436913B1696828781B
:106A2000984701363B78F0B202338342F1DA174AD5
:106A300013785907DAD513786FF3820313700023A4
:106A4000CDF80630CDF80A30ADF80E302B788DF841
:106A5000043005238DF805300D4B1D6814B92B68E3
:106A60002046984701A9281D03F032F9064614B9BB
:106A70002B6801209847002EB8D1064B1B68DB0716
:106A8000B4D500BEB2E70026034FCBE7F5030020E4
:106A900030040020F0ED00E0F403002038B58B78DE
:106AA00003F07F03092B0C4606D90B4B1B68DB0751
:106AB00000D500BE002038BD084B1D78084B20468D
:106AC000997801F08DFA0028EFD021462846BDE8DC
:106AD000384000F0D3BE00BFF0ED00E054000020CD
:106AE000F50300202DE9F047DDE9085680460C4605
:106AF00091469A460027B94501DC01200CE06378F5
:106B0000052B04D1E17801F00301514508D00E4B6B
:106B10001B68DA0702D40020BDE8F08700BEFAE760
:106B200021464046FFF7BAFF28B9074B1B68DB0731
:106B3000F1D500BEF0E7A178CB0914BF3170297000
:106B4000237801371C44D6E7F0ED00E0CB0901F0D3
:106B50007F00273303EB400302480021184401F073
:106B600017BA00BFF5030020CB0901F07F002733DF
:106B700003EB400302480021184401F020BA00BF93
:106B8000F503002038B5154C01F07F0504EB4504F2
:106B900004EBD1142034E079C00707D5104B1B68F3
:106BA000DA0701D4002038BD00BEFBE7E5790D48C7
:106BB00045F001050078E57100F03EFF0028F2D1B4
:106BC000E37960F30003E371E37960F38203E37137
:106BD000034B1B68DB07E5D500BEE4E7F5030020A7
:106BE000F0ED00E05400002010B50C4C01F07F02E5
:106BF00004EB420404EBD1142034E3799B070BD45B
:106C0000074B187800F031FFE37943F00203E3719A
:106C1000E37943F00103E37110BD00BFF5030020E9
:106C20005400002010B50C4C01F07F0204EB42042C
:106C300004EBD1142034E3799B070BD5074B18786C
:106C400000F02AFFE3796FF34103E371E3796FF317
:106C50000003E37110BD00BFF503002054000020C5
:106C60002DE9F04FB74B1B78FF2B89B000F08982DC
:106C7000B54B1D682C46002054F8043B984720462D
:106C800005A902F0FFFF2B68044601209847002C5D
:106C900000F077829DF81530013B072B00F29E82B1
:106CA000DFE813F0080013009C027A0289021F003B
:106CB000480295029DF81400FFF7C0FD00F01EFB8E
:106CC000A24B9DF818209A70D2E79DF81400FFF7A8
:106CD000B5FD00F013FB9E4B002BC9D0AFF3008035
:106CE000C6E79A4C9DF81450237843F001032370B3
:106CF00094F827306FF3000384F8273094F8273096
:106D00006FF3820384F8273094F828306FF3000380
:106D100084F8283094F828306FF3820384F8283000
:106D2000002000F0F3FA9DF8186006F06007602F6D
:106D30000FD1884B1B68DC0700D500BE9DF81400FE
:106D4000002100F092FE80219DF8140000F08DFEDD
:106D50008EE7402F0CD180480028EFD000F0D6FA03
:106D600006AA01212846AFF30080002880D1E5E77C
:106D700006F01F06012E00F0868118D3022ED8D10E
:106D80009DF81C1001F07F02092AD2D804EB4202C0
:106D900002EBD112D07CFFF731FD8046002F00F0CE
:106DA0009E810028CAD006AA00F10C010EE0202F17
:106DB00010D19DF81C300F2BC0D81C44E078FFF791
:106DC0001DFD0028BAD006AA00F10C012846FFF7E5
:106DD00067FDCAE7002FACD19DF81930092BA8D860
:106DE00001A252F823F000BF6F7000005D70000038
:106DF000336D000049700000336D0000116E00001B
:106E00008B6F0000336D00002B6E00003F6E0000A2
:106E100006A800F081FA9DF81A10284600F0DEFC62
:106E2000237843F00203237022E708AA637802F86C
:106E30000E3D012306A9284600F028FA18E79DF820
:106E40001A906378994531D063783BB1284600F0B9
:106E5000D9FDA6782846FFF7F1FCA670B9F1000F1E
:106E600024D009F1FF30C0B201F0B0FA10B143787C
:106E7000022B06D0374B1B68DF077FF55AAF00BEE9
:106E800057E7C2792378511161F30413921162F329
:106E9000451323704388C31800F109060293029B2F
:106EA000B3420AD82D4B0BB1AFF3008084F80190A8
:106EB00006A9284600F0D2F9DAE673780B2B03BF57
:106EC000337896F80380F6184FF001087378042B96
:106ED000D0D1029B9B1B9BB2039300230193204BB9
:106EE0009DF804701B780233BB4225DB3846FFF760
:106EF00085FC83460028BDD08368039A3146284626
:106F00009847082882463DD9039B83423AD3B8F17B
:106F1000010F06D1DBF80820124B9A4208BF4FF050
:106F200002080022D3B2434520D331463B465246A5
:106F30000D4801F085F85644094B1B7802339F42F7
:106F4000ADDD97E75400002030040020F503002059
:106F500000000000F0ED00E0000000000000000074
:106F6000F40300208595000008040020B1780B444C
:106F70009E4951FA83F30132D978FF297FF47AAF21
:106F8000DF70CFE7019B0133A8E7BDF81A00030AC1
:106F90005A1EC0B20E2A3FF6D1AE01A151F822F01E
:106FA000DD6F000007700000277000003D6D0000DD
:106FB0003D6D00003B700000077000003D6D00005B
:106FC0003D6D00003D6D00003D6D00003D6D000019
:106FD0003D6D00003D6D0000E76F000001F0E0F93D
:106FE000122302460AE0824B002B3FF4A7AEAFF318
:106FF0000080024600283FF49CAE438806A928463C
:1070000000F044F9B1E6022B06D101F0DFF90028C7
:107010003FF48FAE4388E4E7764B002B3FF48EAE0F
:10702000AFF30080F3E7BDF81C1001F08BFA0246C5
:1070300000283FF483AE0378E0E76F4B002B3FF46A
:107040007DAEAFF30080F2E7BDF81A30012B7FF47C
:1070500075AE237843F00803237029E7BDF81A3092
:10706000012B7FF46BAE23786FF3C303F4E723782F
:10707000C3F340129B0803F00203134308AA22F84B
:107080000E3D0223D6E69DF81C300F2B3FF656AE80
:107090001C44E078FFF7B2FB00283FF44FAE00F14C
:1070A0000C0106AA2846FFF7FBFB00287FF4E0ADA1
:1070B0009DF8183013F060047FF440AE9DF819304D
:1070C0000A3B012B3FF63AAE00F020F99DF819304B
:1070D0000A2B7FF4EDAE08AA02F80E4DA9E69DF842
:1070E0001930012B03D01DD3032B7FF422AEBDF842
:1070F0001A2022B9012B284619D1FFF793FDB8F1C8
:10710000000F3FF4B5AD06AA08F10C012846FFF7C1
:10711000C7FB002000F0FAF894F82830DE073FF5AE
:10712000A7ADC5E692F82730C3F34003A6E7FFF703
:107130005BFDE4E79DF818102C4B01F07F0403EB96
:10714000440303EBD11393F827006FF3000083F897
:10715000270093F827006FF3820083F827003CB9DB
:10716000079B9DF819209DF8140000F0E1F87FE5D9
:10717000D87CFFF743FB38B9204B1B68D80700D5F4
:1071800000BE09B0BDE8F08F0469079B9DF8192087
:107190009DF81400A0476BE5144B1A78D1077FF5D2
:1071A00067AD174A002A3FF463AD1878C0F3C000FA
:1071B000AFF300805CE50D4B1B78DA077FF558AD27
:1071C000104B002B3FF454ADAFF3008050E5069B0D
:1071D000002B3FF44DAD0798984749E5074B1B68D6
:1071E000DB077FF545AD00BE42E500BFF50300209B
:1071F000000000000000000000000000F0ED00E0D2
:107200000000000000000000124B9989DA8970B577
:107210008C1AA4B2054693F90000402C28BF4024E4
:10722000002809DA914212D099680B48224606F0EC
:1072300097FB8021084A04E091424FF00001F9D108
:10724000002223462846BDE87040FFF79BBC802102
:10725000F6E700BF340400204804002030B40A4C94
:1072600005460A4608684968234603C30023C4E963
:10727000023392F900209A4228461A46ACBF802178
:10728000194630BCFFF77EBC34040020F8B5194D18
:107290000C46074608684968AA602E4603C60021C6
:1072A000E981E1888B4228BF0B46AB8179B143B1BC
:1072B0003AB9114B1B68DA0701D40020F8BD00BEB3
:1072C000FBE73846FFF7A0FF68B10120F6E794F925
:1072D0000030002B0A460B463846ACBF8021002107
:1072E000FFF750FCF0E7044B1B68DB07E5D500BE59
:1072F000E4E700BF34040020F0ED00E01422002198
:10730000014806F038BB00BF34040020014B18616F
:10731000704700BF340400200146044A00684968F1
:10732000134603C30023C2E902337047340400202C
:1073300070B52F4C1E462378C909B1EBD31F054603
:1073400016D03EB12B4B1B68DA0701D4002070BD6C
:1073500000BEFBE7284B13B12146AFF30080236941
:107360000BB90120F3E7224A032128469847F8E7A2
:1073700094F90030002B06DBA0680028E6D03246E6
:107380001E4906F0EDFAA368E28933443244A36053
:10739000E38892B29342E28101D03F2E24D8236940
:1073A0009BB994F90030002B4FF000031A46ACBF94
:1073B000802119462846FFF7E5FB0028D1D10D4B67
:1073C0001B68DB07C2D500BEC1E70221084A284678
:1073D000984701460028E4D1284600F046FB80216A
:1073E000284600F042FBBCE72846FFF70DFFE4E724
:1073F00034040020F0ED00E000000000480400200C
:10740000054A1146138D03F00F038342FAD14B8DC9
:107410009B04FCD5704700BF0000094030B503460F
:107420008518EC1A012C0DD853086FF0010522F0D5
:10743000010405FB032222B1025D0B7862F307030E
:107440000B7030BD33F8024B0C80EAE702449042E7
:1074500000D170470B7800F8013BF8E72DE9F04FB9
:107460001F460C23164E7B4385B0894606EB030A64
:1074700001A9F358154680469847BDF80440DAF84C
:1074800008B00298AC4228BF2C4622464946D8474D
:107490002C1B0AD0BDF806A00398A24528BFA2461F
:1074A00052464946D847A4EB0A040C2303FB07665F
:1074B000291B736889B24046984705B0BDE8F08F34
:1074C000CCF000002DE9F041194BDC881F4634B99F
:1074D0001C705C709C70DC700120BDE8F081154B65
:1074E000B3F85E8008F07F084445254628BF45462E
:1074F0004DB17B7A3E68DB0711D501232A460E4940
:107500003046FFF7ABFF45453CBF0A4B4FF4004206
:10751000A4EB050438BF5A840020FC80DDE7304628
:107520002A4605492E44FFF779FF3E60EBE700BF8E
:107530008804002000000940140009402DE9F84F9C
:10754000254B4FF00C0909FB00F903EB0905074631
:10755000EC8898463CB903F8094001206C70AC7087
:10756000EC70BDE8F88F1D4B82B242F48061198542
:10757000A3F86420B3F86CA01FFA8AFAFFF740FF63
:107580005445264628BF564656B155F808BB6B7879
:10759000DB0717D50123324611495846FFF75EFF36
:1075A00056450E4B3CBF4FF400425A8500221A85C7
:1075B000188D10F00F00FBD10C2303FB0787A41BD1
:1075C000FC80CEE7584632460549B344FFF726FF14
:1075D00048F809B0E4E700BF880400200000094033
:1075E0001800094038B51C4C01B34FF4846525845C
:1075F000258CAD06FCD5194C657AA38060F3000597
:107600006572E3801448EBB12260B1B1B0F860302C
:10761000DB0B03D0B0F854301B060CD4104B1868A9
:1076200010F0010001D000BE002038BD2184258C5F
:10763000AD06FCD4DFE7FFF745FF074B0120A3F8B9
:107640006000F2E723706370A370E3700523A0F875
:1076500060300120E9E700BF0000094088040020F5
:10766000F0ED00E02DE9F041344C4FEAD11E1F4609
:1076700001F07F0104EB0E131944054691F87800E0
:1076800038B92F4B1B6813F0010354D000BEBDE87E
:10769000F0810C234343E118E25091F809C08F8038
:1076A00065F3000C81F809C0CF80BEF1000F11D046
:1076B0001FB1FFF743FF0120E9E7224C83B2238586
:1076C000FFF79EFE4FF4004363852785238D1A073D
:1076D000FCD1F0E7431E042BEDD81A4BDFF86CC049
:1076E000194D82B200F10041A3F864200139B3F8CA
:1076F0006C603CF8113000F18044013CB6B29B074D
:1077000005EB84084FF4807306F1FF3218BF2CF8A4
:1077100011E025F82430D319B3FBF6F39BB2A8F897
:10772000023035F82430012043F4007325F824306A
:107730002CF81100ABE71846A9E700BF8804002029
:10774000F0ED00E0000009409000094070000940A1
:10775000C0B210F07F020BD0C309064800EB031043
:10776000104490F878301BB103485B001844704710
:1077700002487047880400206E00094060000940FC
:1077800068B9074B93F90030002B08DB0122590937
:1077900003F01F0302FA03F3024A42F82130704754
:1077A0005500002000E100E090B90A4B93F9003049
:1077B000002B0DDB5A09012103F01F0301FA03F32B
:1077C0002032054941F82230BFF34F8FBFF36F8F4E
:1077D000704700BF5500002000E100E07047FFFF48
:1077E000024A138843F010031380704700000940D9
:1077F00008B51D4B1A8842F480621A801A88520517
:10780000FCD51A886FF345121A801A886FF3861216
:107810001A801A8842F001021A800522C3F8F0206B
:10782000D3F800246FF30412C3F80024B3F8CC207B
:1078300042F08002A3F8CC20B3F85E20402161F32F
:107840000602A3F85E204FF45F421A8601225A878F
:10785000DA861A8842F010021A80B3F840301B060C
:1078600001D5FFF7BDFF08BD00000940024B1A8893
:107870006FF304121A807047000009402DE9F047A9
:10788000CE78B1F804A006F00306012E0746CAF32D
:107890000A0A04D1BAF5807F06D9002052E0022EF0
:1078A00052D066D8012EF8D13B4B1A7D002A58D011
:1078B00093F82030002BF0D102248978364A4FEA21
:1078C000D1184FEA08150C2301F07F0903FB0423AC
:1078D0002A444A441972384682F87840FFF764FF18
:1078E0002E4A2F4804F10041A3B20139A2F86430B6
:1078F0004FF44073A2F86CA0022E20F811304FF024
:10790000000320F8113045EA09033ED143F48543D2
:107910009BB2A2F86830012303FA04F4A4B284F401
:10792000FF755D40A2F84650D58E2C43D486B8F141
:10793000000F01D1022E01D020F811303846FFF798
:107940001FFF0120BDE8F087134B93F82C2052B1A4
:1079500093F838204AB193F8442042B11B7D002BA4
:107960009BD10124A9E70324A7E70424A5E7052464
:10797000A3E7094B06240C2202FB0430007A0028FE
:107980009BD001340A2CF7D187E7032E0CBF43F4B8
:10799000004343F44243BBE7880400200000094051
:1079A0007000094070B5134B134E01F07F05C909F3
:1079B00009015A182A44F08E92F878200124944044
:1079C00020EA0400F0869AB10C4C500004440020D8
:1079D0002080094C96B2A4F86460A4F868000C24D6
:1079E00004FB02320B442B44107283F8780070BD04
:1079F000034CECE788040020000009406E000940B9
:107A000060000940F8B50546FFF7CEFE094E0A248E
:107A10000C27013C04D12846BDE8F840FFF7B0BE72
:107A200007FB0463197A0029F3D02846FFF7BAFF51
:107A3000EFE700BF88040020F8B50C46074615465E
:107A40001E46FFF7B1FE14F07F0033462A4621465A
:107A500007D1FFF7C7FD04463846FFF791FE2046E1
:107A6000F8BD0020FFF7FEFDF5E738B505460846EE
:107A7000FFF76EFE044670B12846FFF795FE238897
:107A800003F0030343F00203238002232380BDE8B5
:107A90003840FFF775BE38BD70B5064608460D463E
:107AA000FFF756FE0446D8B13046FFF77DFE4FF48F
:107AB00080732380EB0902D0012323800BE0094966
:107AC000094B294491F87820A3F86420B3F8683072
:107AD0009B0B012BF0D13046BDE87040FFF750BE44
:107AE00070BD00BF8804002000000940C64A2DE98F
:107AF000F04FB2F84040A4B2E34363F478439BB242
:107B000027048BB00646A2F8403006D5B2F84030C4
:107B10001D0640F1AE80FFF763FE610414D5002519
:107B20000523012107A88DF81D30CDF81E50CDF892
:107B30002250ADF826508DF81C60FEF72BFFB24B9B
:107B40001A8E65F34D321A86A20417D5AE4F3B8EBE
:107B50009B0413D500250323012107A88DF81D30B0
:107B6000CDF81E50CDF82250ADF826508DF81C608F
:107B7000FEF710FF3B8E65F34D333B86E7040AD5D5
:107B800004F07003402B7DD076D8102B00F090804D
:107B9000202B00F0E480A50542BF9B4B0022A3F8F8
:107BA0004820200533D5E10740F1FA80964BB3F821
:107BB000402012072BD54FF480425A84B3F854204A
:107BC000ADF81420B3F85620ADF81620B3F85820BD
:107BD000ADF81820B3F85A20ADF81A204FF6F77216
:107BE000A3F840200023CDF81E30CDF82230ADF8A8
:107BF00026300822062305A908A88DF81C608DF8F8
:107C00001D3005F0ADFE012107A8FEF7C3FE630598
:107C10001DD57D4BB3F84A200025D707A3F84A505D
:107C200015D5FFF74FFC90B1784B07229B888DF854
:107C30001D200121802207A8CDF81E50ADF822504A
:107C40008DF81C608DF820200993FEF7A3FEE00557
:107C50000CD56D4B6D4CDA8EB3F846701740FA4375
:107C600092B2A3F84620002F40F0B2800BB0BDE8DE
:107C7000F08FFFF7FBFD50E7602B03D0702B01D096
:107C8000502B88D10023CDF81E30CDF82230ADF82E
:107C900026300121042307A88DF81D308DF81C60C3
:107CA000FEF778FE584A138E43F40053138672E7AA
:107CB000554B01225A87DA864FF480425A840022BB
:107CC0001A851A8D12F00F02FBD19A859A8D12F047
:107CD0000F02FBD14E4FDFF83C914B4D01239246F2
:107CE0004FF400784FF4807EBC4603EB0900D919AD
:107CF00049001FFA83FB80000133062BA5F864B00E
:107D0000A5F868A0A1F800800A80A0F800E0ECD1F6
:107D100000253D492F464FF4007003EB0C02520042
:107D20001FFA83FE01330A2BA1F864E0A1F8687002
:107D300010801580F1D100219822344805F01BFEF7
:107D40000121CDF81E50CDF82250ADF826508DF807
:107D50001C608DF81D1007A8FEF71CFE1BE72A4BC0
:107D6000B3F85030DBB2002B3FF415AF4FF4A062F4
:107D7000ADF816300023ADF814200693CDF81E3070
:107D8000CDF82230ADF8263005A90623082208A830
:107D90008DF81C608DF81D3005F0E2FD0121DAE759
:107DA00014F007037FF433AF174A128CCDF81E305E
:107DB00012F0200F14BF802200220721ADF82230DC
:107DC0008DF81C608DF81D108DF8202009931AE79E
:107DD00097FAA7F5B5FA85F50C236B4304EB030876
:107DE000019398F80830DB0908F1080214D02846FE
:107DF000FFF7A4FB002840F09B80012303FA05F560
:107E000027EA05072FE700BF00000940880400208B
:107E10003780042023400210CDE90223DFF8589177
:107E2000002D53D0A9B2B8F806B0A9F828102846FA
:107E3000A9F86410B9F86CA0FFF7E2FAB9F82A10B3
:107E40001FFA8AFAC1F30B0151450B4628BF53466E
:107E50005B45009328BF5B469946D8F800804BB13C
:107E6000029A5278D10727D5039B42494A46404699
:107E7000FFF7F4FACA45404B84BF4FF480425A855D
:107E800000221A851A8D1207FCD10C2303FB054230
:107E9000ABEB0901CA45D18002D8009A9345ACD812
:107EA0006B430022E118B8EB0200E25418BF012036
:107EB0004A708A70CA709DE71A462E494046FFF7FD
:107EC000C5FA019A08EB0903A350D3E7B9F85EA0FD
:107ED000B4F806B0B9F822800AF07F0AD345C8F397
:107EE0000B03D84628BFD046984528BF9846B8F11E
:107EF000000F0AD0637AD4F80090DB0731D52B4607
:107F000042461E494846FFF7A9FAC24582BF1A4BAE
:107F10004FF480425A84ABEB0803C245E38002D899
:107F2000C3457FF46AAF002323706370A370E370CE
:107F30000C2303FB054307A89A88197ADB888DF880
:107F40001C60D31A0022CDF81E20ADF822208DF837
:107F50002010072201218DF81D200993FEF71AFD3C
:107F60004BE7484642460549C144FFF76FFAC4F85B
:107F70000090CAE7180009400000094014000940B9
:107F8000014B1870704700BF55000020FEF7B2BCCF
:107F9000037813F0010310D10278C2F3800262B9B2
:107FA000037813F0010308D10278530705D403784E
:107FB00043F00403037001207047002070470378EA
:107FC000C3F380034BB1027812F0010105D10278AE
:107FD00061F3820202701846704700207047FFFF6D
:107FE0008388C07800F003000228C3F30A0312D08C
:107FF0001BD801280DD1022940F2FF3208BF4FF4EF
:1080000080629A420DD20D4B186810F0010008D022
:1080100000BE00207047022904D1B3F5007FF2D1E1
:1080200001207047402BEED8FAE702290CBF4FF42D
:10803000806240229A42E6D3F2E700BFF0ED00E012
:1080400030B50A44914200D330BD4C78052C06D19E
:108050008C7804F07F0500EB4505E4092B550C787E
:108060002144EFE70368DB691847037C0BB9012360
:1080700003747047704713B502AB026803F8011D23
:10808000546819460122A04702B010BD007C10B10F
:10809000002001F0A1B97047007C10B1002001F070
:1080A00023BA7047037C13B1002001F0BFB97047B9
:1080B000134B1B68B3F5966F21D1124B1978F1B9A8
:1080C000114B12484AF20252A3F8FE23104A1060E4
:1080D0004FF42542A3F8FE2303F5E4231A8861F345
:1080E00004121A80BFF34F8F0A490B4BCA6802F47F
:1080F000E0621343CB60BFF34F8F00BFFDE77047D3
:10810000340500203805002000E001403581730768
:1081100000E5014000ED00E00400FA0507B5007C31
:1081200038B10DF10701002001F076F920B19DF87A
:10813000070003B05DF804FB4FF0FF30F9E770472C
:1081400010B50446002001F031F900B9607C10BD83
:10815000037C07B513B94FF0FF3012E0FFF7F0FFD3
:108160000028F8D0002001F037F90028F3D00122D0
:108170000DF10701002001F03BF90028EBD09DF83C
:10818000070003B05DF804FB2DE9F84F047C80463E
:108190008A469146002C46D0FFF7D2FF002845D0F2
:1081A0000026264F3446B1453DD9002001F09CF908
:1081B000A9EB06058542A8BF0546B5B12A460AEBDC
:1081C0000601002001F076F9002105464FF0FF304E
:1081D000FEF746FD002001F029F9FEF729F90023FA
:1081E0002E442C4438607B60DDE729464FF0FF3099
:1081F000FEF736FD284601F019F94046FFF7A0FFCB
:1082000088B901F071F90028CDD1FEF711F9D7E94D
:10821000002312F57A7B4FF0000143F1000C8C45EE
:1082200008BF8345BFD22046BDE8F88F034B00242A
:108230000025C3E900450446F5E700BF48050020D6
:1082400038B5037C04460BB9002038BD4FF0FF3031
:108250000021FEF705FD2046FFF772FF0028F3D04E
:10826000054D2C78002CF0D00A20FEF7ABF8002347
:108270002B702046E9E700BF5600002030B5164BB2
:1082800016494AF20252A3F8FE23154A8BB0116038
:108290004FF42542A3F8FE2306238DF8143005235E
:1082A00001248DF8153005A9032301A88DF8163097
:1082B0008DF817308DF818408DF8194002F012FC37
:1082C000054601A802F038FC064B0E2D1C7000D1AB
:1082D000FEE70BB030BD00BF00E001403581730701
:1082E00000E5014050050020024B1970024B1A7046
:1082F000FFF7DEBE3805002039050020064B0A686E
:108300001A60064B4A791A60054B0A791A60054BC8
:108310008A791A60FFF7CCBE34050020440500209E
:10832000400500203C050020054B00224FF47A71E7
:10833000C3E90121034919601A745A74704700BFD8
:1083400020050020ECF0000010B501F1080400F059
:108350000F02D3B2092ACCBF3733303304F8013DC2
:10836000A1424FEA1010F2D110BDFFFF08B5EFF3A4
:108370000383103B5BB2C033084A52F823106FF3FB
:10838000104142F823100020FFF7B0FB00214FF00E
:10839000FF30BDE80840FEF763BC00BF006000404E
:1083A0000248002303714371837170475700002016
:1083B00007B505480023019310B101A8FCF77AF82E
:1083C00003B05DF804FB00BFB5440000014B186822
:1083D000704700BF540500202DE9F04F544E33681C
:1083E000A3B0002B40F0A180DFF85481514FB8F1C9
:1083F000000F14BF4FF003094FF000094FF00103C5
:1084000007B93B464C4D4FF0010405B92C461C44BE
:1084100054224A490DA805F0A3FA4C440023E4B2C3
:10842000029315B102A8FCF745F8172200210DF1BF
:108430001A0005F0A0FA40F20943ADF8183040F2F6
:108440000133ADF81C3021238DF8223011238DF833
:10845000233042F20123ADF8263040F20753ADF845
:108460002A3040F28333ADF82C3040238DF82E3083
:108470000A238DF83030029B8DF81A904FF0000BD4
:10848000B8F1000F4FF0090A8DF8283018BF4FF0EF
:108490005D094FEA132308BFD1465D458DF82930A9
:1084A0000CBF5A46192240F209239144ADF80C3012
:1084B000C02301218DF813304846FA238DF821A0FE
:1084C0008DF824108DF812B08DF811108DF814303D
:1084D0008DF80E908DF80FB08DF8104005F030FA41
:1084E000306010B34A46594605F045FA36685246A0
:1084F00003A9304605F034FA06EB0A04B8F1000F80
:1085000006D0204654220DA905F02AFA06F15D0492
:108510002DB12046192206A905F022FA193427B1F7
:10852000002201A9204605F01BFA23B0BDE8F08F18
:108530005405002000000000B544000018F10000C0
:108540003F81000070B5204C94F900300546B3B966
:108550001E4B1B6803F1140658692146FFF7F4FE11
:1085600004F108017068FFF7EFFE04F11001B06834
:10857000FFF7EAFE04F11801F068FFF7E5FE5DB9C8
:10858000134B40F209425A800123013310485B002B
:1085900043F44073038070BD052D12D80D4B0C4C75
:1085A00053F825100122013911F9010F531EDBB2D6
:1085B0000028EAD024F812000132212AF4D1202325
:1085C000E3E70020E7E700BF9A0500209CB17F4069
:1085D000580500206CF100001FB5FFF7D7FC0446DA
:1085E00048BBFBF7A3FF15494AF20253A1F8FE333B
:1085F000134B5A6822F400625A605A6822F480527F
:108600005A604FF42543A1F8FE33042301930D4B28
:1086100002936FF020030393FCF70EFE01AA0121E1
:10862000FCF78EFF9DF90C00FFF7AAFCFFF7D4FEC4
:108630002046FEF767F904B010BD00BF00E001401E
:10864000FC6F04406D830000002070477047FFFFFF
:10865000344B1B6870B599424FF00004048044808D
:10866000848016D8304B03EBC10123464E68E1B23B
:1086700036F811101AB901F03E050A2D04E0012A5E
:1086800008D101F03E05082D0AD0090404F10104C7
:10869000EDD570BD022A08D101F03E05042DF2D1BE
:1086A0005D1C20F81310EBB2EFE7032A04D101F0B0
:1086B0003E05062DE1D1F3E7042A02D101F03A0587
:1086C000E1E7052A02D101F03A05D6E7062A03D1EF
:1086D00001F03E05102DD7E7072A05D101F03E0530
:1086E000122DDDD0182DCFE7082A03D101F03E0569
:1086F000022DC9E70A2A03D101F03E05142DC3E774
:108700000B2A03D101F03E051C2DBDE70C2A03D135
:1087100001F03E051A2DB7E70D2AB6D101F03E054E
:108720001E2DB1E7F4EF0000BCEE00000120704701
:10873000036840F213421B6A1847D0F82C322BB161
:10874000D0F82832184490F8240070474FF0FF30DA
:10875000704713B5044690F8A8048DF8071070B15F
:10876000002384F83C3401220DF1070104F58860F0
:1087700002F088FB94F83C34002BFBD0012002B0BF
:1087800010BD0023C0F82432C0F82832C0F82C32C3
:10879000C0F83034C0F83434C0F8383400F588609C
:1087A00002F0F0BB036813B962B6BFF36F8F704776
:1087B0000268204B53F8223013B54BB10279042ADA
:1087C00008D0802A01D0022A02D1012283F83C2459
:1087D00002B010BDD3F82C22B2F5007FF8D0007A99
:1087E000EFF3108200920122019272B6019A013ACF
:1087F000511C1AD0D3F82C12B1F5007F02F1FF34CE
:1088000011D0D3F82412194481F82400D3F824128B
:108810000131C1F30801C3F82412D3F82C1201313D
:10882000C3F82C12E3E72246E2E768460192FFF71D
:10883000B9FFCDE7DC05002013B5EFF310830093FB
:108840000123019372B6019B5A1E0192E3B1D0F845
:108850002C32B3B1D0F82832034493F82440D0F836
:1088600028320133C3F30803C0F82832D0F82C3281
:10887000013BC0F82C326846FFF794FF204602B057
:1088800010BD4FF0FF34F6E76846FFF78BFF4FF05F
:10889000FF34F3E738B5044600254FF47A70C4E995
:1088A0000150A3611648049BE361C4E904122060EF
:1088B00029464FF4007204F1240005F05CF8C4F876
:1088C00024524FF40072C4F828522946C4F82C529E
:1088D00004F50C7005F04FF8DF23C4F8305484F829
:1088E000A854C4F8345484F87734C4F8385484F85D
:1088F000793484F8753484F87B34204638BD00BF61
:10890000D8F1000010B50C46FCF796FC2246042175
:10891000BDE81040FCF714BEF0B50369002B85B02C
:10892000044602DA002005B0F0BD4269002AF9DBF6
:108930008B42F7DA8A42F5DAD9B20022684602AEF3
:10894000FFF786FE0122217D3046FFF781FE0022DF
:108950003DF812500021AB11002D45D036F8120021
:10896000002841D036F8110083EA9017FF063BD16A
:1089700003F01F0323620028D4D0092BD2DC15F4A6
:10898000F04F23691C4E0CBF4FF080624FF0A06285
:1089900036F8331010F4F04F42F4803217480CBF11
:1089A0004FF080654FF0A065FBF792FE63691348B6
:1089B00036F8331045F480352A46FBF789FEA36963
:1089C0005A1C0FD0E26901320CD036F833100B4834
:1089D0002A46FBF77DFEE369084836F833102A463D
:1089E000FBF776FE01209EE701310329B4D1013265
:1089F000032AADD196E700BFBCEE0000680E002050
:108A0000664B2DE9F0410E461968C9080446154623
:108A1000FFF782FF84F8A804002800F0BD8094F8D6
:108A200091145F4B226A6FF3010184F891141921AC
:108A300043F82240A4F8921494F89034012184F869
:108A400095140F2103F0E70384F89C144FF6FF718F
:108A500043F04003A4F89E14A1696FF3820384F8E5
:108A6000903404F592670023013184F8943484F83B
:108A70009634C4F8987484F8A03405D0E1690131C3
:108A80001CBF082184F8A01484F8702404F29442D6
:108A9000C4F88C2440F213424FF6FF71954284F8DB
:108AA000A23484F8A334A4F8A414C4F88834C4F815
:108AB0008034C4F87C343ED02DD840F21142954227
:108AC00048D040F2124295424AD0364BC4F8843422
:108AD00004F58E6841462046FFF714FF94F8A83449
:108AE000184084F8A80401213B4640F6B8323046CD
:108AF00002F0F4FC94F8931429B93B4640F6B832DE
:108B0000304602F0EBFC04F588654146284602F049
:108B1000A1FA78B3FEE740F23242954225D040F206
:108B2000334295420FD040F231439D42CDD10223D2
:108B300084F871340AE0022284F8712484F87234D3
:108B400084F87334C1E7022284F8712484F8723403
:108B50000123F5E7022284F8712484F87224EFE7F8
:108B6000022284F871240322F7E7022384F8713487
:108B70000323EBE73946284602F0C2F900B1FEE7CD
:108B8000C4F82402C4F82802C4F82C02C4F8300443
:108B9000C4F83404C4F83804BDE8F081F4EF0000F0
:108BA000DC050020B187000030B58C18A14208D048
:108BB000D0F8603411F8015BDD701D796D07FCD5CC
:108BC000F4E7104630BD13B5EFF310830093012393
:108BD000019372B6019B5A1E01923BB1D0F8084234
:108BE0006846FFF7DFFD204602B010BD6846FFF77C
:108BF000D9FD4FF0FF34F6E708B52430FFF7E3FF67
:108C000008BD10B500F50C742046FFF7DCFF002806
:108C1000FAD110BD07B54FF0FF330093172216218C
:108C20000248FFF737FE03B05DF804FB040600209E
:108C30002DE9F04106460D4601EB02080C4644457D
:108C4000A4EB050707D0336814F8011B1B683046F6
:108C500098470028F3D13846BDE8F081F8B5184BA5
:108C60001B780546144646184BB11146154804F0CA
:108C700033FF154804F030FFAC4212D22C461348A3
:108C8000134D114F04F028FF0F4804F025FFB442A4
:108C90000BD3104804F020FF0B48BDE8F84004F067
:108CA0001BBFB44228BF3446E9E722682146284664
:108CB00004F012FF384604F00FFF0434E7E700BF6A
:108CC000A00B002070F9000095F9000098F9000051
:108CD000BDF90000FDF2000008B50F4B0F49186008
:108CE0000F4B1A600F4B104A1A60104B9B1A104A18
:108CF0001360104A1160104A521A10490A603BB9B9
:108D00000F4804F0E9FE0F48BDE8084004F0E4BE57
:108D10000D4B01221A7008BD480B002000400000D6
:108D2000A40B0020540B0020007B0020007F0020BB
:108D3000500B0020440B00203CFB0000400B0020A7
:108D40000EF9000095F900004C0B002008B5064B09
:108D500006481A68064B196804F0BEFE0548BDE8CF
:108D6000084004F0B9BE00BFA40B0020EBF80000DF
:108D7000480B002095F90000304B2DE9F04F1C689E
:108D80002F4BD3F800E02F4B1D782F4B1E782F4B25
:108D90001F682F4B1B688B4607EB030CDDB1CEB968
:108DA0002C4B99695B690160013BBB4215D363455C
:108DB00013D8BBF1010F10D943600223A64426B19A
:108DC000944203D8724528BF724614460437DFF830
:108DD00088802EE000252B46F0E735460123EDE79D
:108DE0002268D10724D5561EB74221D866451FD820
:108DF0000F2B1DD832F8059C32F8032C02EA080A22
:108E0000BAF5784F04D109EA0809B9F5704F04D0D2
:108E100002F47F42B2F58E4F0AD15B4508D2022B95
:108E200003D115B14268B24202D040F82360013349
:108E300004347445D4D31846BDE8F08F540B002099
:108E4000500B0020580B0020A00B0020440B0020EA
:108E5000400B00205C0B002000F8FFFF2DE9F043E1
:108E600091B0044640220021684604F084FD224669
:108E700010216846FFF780FF164FDFF87080064626
:108E800000244FF02009B44213D1FCB1114B124918
:108E90001248096804EBC4041C44002204F8012CA5
:108EA0000F4A04F019FE0F4804F016FE11B0BDE899
:108EB000F08304EBC4053D445DF824204146284678
:108EC00004F07EFE013485F80890DCE7064804F0E3
:108ED00003FEE8E7B00A0020480B0020E3F9000099
:108EE000DEF9000095F9000020FA0000D8F9000032
:108EF0002DE9F0410D4B1B7886B006460D4643B96F
:108F00000B4A0C490C4804F0E7FD0C4804F0E4FD62
:108F1000FEE70B4B1A78BAB1054A0A49064804F035
:108F2000DBFD064804F0D8FDFEE700BF4C0B002037
:108F300004F2000017F200001FF2000095F9000093
:108F4000580B00203DF20000A64AA7481468A74A23
:108F5000A74FD2F8008001221A7004F0BDFDA54889
:108F600004F0BAFDFFF7F2FEA34804F0B5FDA148F6
:108F700004F0B2FDF6064CBF05F1200605F16806C7
:108F8000B44203D804EB0803B34201D201233B707F
:108F9000204632464146FFF761FE3B78974C002B56
:108FA0003DD1974804F098FD924804F095FD2F6953
:108FB00027616F692A686B68A968E8686761AF69AB
:108FC000ED6922606360A160E060A761E5610490E3
:108FD0008C48CDE902108C498C48CDE900318C4B8E
:108FE0008C4904F079FD834804F076FDE36904932D
:108FF000894B0393A3690293884B019363690093A0
:109000002269874B8749814804F066FD794804F05E
:1090100063FD854804F060FD764804F05DFD834BF8
:10902000834A1B682362834B1B7884F82430824B6D
:109030001B68A362814B1B7884F82C30804B1B6823
:109040002363804B1B88A3867F4B1B681288E263D7
:109050007E4AA363128822649D0705D57C4804F0EC
:109060003BFD644804F038FD94F83B30580640F16D
:10907000278194F82430002B3CD0D90705D57548BA
:1090800004F02AFD5B4804F027FD94F824309A0789
:1090900005D5714804F020FD564804F01DFD94F8F4
:1090A00024301B0705D56D4804F016FD514804F027
:1090B00013FD94F82430DF0605D5694804F00CFD53
:1090C0004C4804F009FD94F824309D0605D5654808
:1090D00004F002FD474804F0FFFC94F82430180621
:1090E00008D5990706D0A16A5F4804F0F5FC41480D
:1090F00004F0F2FC94F82C30002B46D0DA0705D5AA
:109100005A4804F0E9FC3B4804F0E6FC94F82C30A3
:109110009B0705D5564804F0DFFC364804F0DCFC1C
:1091200094F82C305F0705D5524804F0D5FC31483F
:1091300004F0D2FC94F82C301D0705D54E4804F0FD
:10914000CBFC2C4804F0C8FC94F82C30D80605D58C
:109150004A4804F0C1FC274804F0BEFC94F82C30C7
:10916000990605D5464804F0B7FC224804F0B4FC43
:1091700094F82C301A0608D59F0706D5216B414874
:1091800004F0AAFC1B4804F0A7FCA38E002B00F0FF
:10919000978094F83430DD0705D53B4804F09CFCFB
:1091A000144804F099FC94F83430980705D53748F2
:1091B00004F092FC0F4804F08FFC94F83430590707
:1091C00005D5334804F088FC0A4804F085FC94F87F
:1091D00034301A0760D52F4804F07EFC054804F0AF
:1091E0007BFC59E0540B002096F90000500B002046
:1091F000A00B002095F9000047F200005C0B002056
:109200007BF2000045FA000049FA0000BAF20000C3
:109210003DFA000041FA000055FA000059FA00003A
:109220004DFA000051FA0000E3F2000024ED00E0E6
:1092300030ED00E028ED00E034ED00E029ED00E045
:1092400038ED00E02AED00E02CED00E03CED00E020
:1092500022F300004EF3000090F30000CBF3000077
:1092600001F4000035F4000081F40000B6F40000C1
:10927000EAF400001FF5000056F500007EF500003E
:10928000A4F50000E2F5000009F600004FF600002A
:109290009BF60000FAF6000094F83530DB0705D5A0
:1092A000274804F019FC274804F016FC94F83530E0
:1092B0009F0705D5244804F00FFC224804F00CFC5D
:1092C00094F93B30002B34DAE36B002B31D094F867
:1092D0003C30DD0705D51D4804F0FEFB194804F0BD
:1092E000FBFB94F83C30980705D5194804F0F4FBD3
:1092F000144804F0F1FB94F83C30590705D51548A3
:1093000004F0EAFB0F4804F0E7FB94F83C301A073E
:1093100005D5114804F0E0FB0A4804F0DDFB94F8A1
:109320003C30DB0605D50D4804F0D6FB054804F0BB
:10933000D3FB304606B0BDE8F041FFF78FBD00BF5C
:1093400041F7000095F9000093F70000FDF70000D9
:109350002DF8000060F800008CF80000BBF8000059
:1093600070466946FFF7C4FDFEE770B500F11005D1
:109370000446284600F074FC3F2815D9E178002007
:10938000FDF7E4FB80B1284600F06AFC3F28E17855
:1093900007D904F50A7240230020BDE87040FDF7AC
:1093A000F1BB0020FDF7E0FB002070BD10B50446C6
:1093B000FDF790FA08B9002010BDFDF793FA0028D8
:1093C000F9D1044B4FF42A7202FB0434207900F0E7
:1093D0000100F1E7A80B002008B5044A4FF42A73F6
:1093E00003FB0020103000F013FC08BDA80B002088
:1093F00070B54FF42A744443064D04F1100092B244
:10940000284400F04EFC06462819FFF7AEFF304610
:1094100070BD00BFA80B0020034A4FF42A7303FB62
:109420000020103000F050BCA80B00202DE9F041C6
:109430000546FDF74FFA10B90020BDE8F081FDF7B1
:1094400051FA07460028F7D14FF42A746C43174DA0
:1094500004F11C062E44304600F0DAFB0028EBD065
:1094600005EB0408384698F80210FDF76FFB00285A
:10947000E2D004F51A74254429464022304600F013
:1094800010FC98F80210044658B103462A463846A4
:10949000FDF778FB38B9064B1B68DB07CCD500BE5F
:1094A000CBE7FDF761FB2046C7E700BFA80B002014
:1094B000F0ED00E00B4B70B54FF42A7404FB003460
:1094C0001C3492B20546204600F025FC0646204694
:1094D00000F09EFB3F2802D92846FFF7A7FF304641
:1094E00070BD00BFA80B002008B5044A4FF42A73D2
:1094F00003FB00201C3000F0B3FB08BDA80B0020CC
:1095000013B5134C4FF42A720021204604F033FAAD
:10951000FF2363714FF4E133A36008220023A3818A
:10952000A273009304F1280101234FF4807204F127
:10953000100000F056FB012300934FF4807204F5F5
:10954000947104F11C0000F04CFB02B010BD00BF90
:10955000A80B002010B50A4C00210522204604F07B
:109560000AFA04F110001C3400F0DBFB204600F086
:10957000D8FB20460121BDE8104000F0D7BB00BF5A
:10958000A80B0020F7B54B79022B074603D0002427
:10959000204603B0F0BD8B79022BF8D11F4EB37873
:1095A0007BBB8B7833700D7809240D4403E02B7856
:1095B0001C44A4B21D446B78242B1BD19442F6D9D1
:1095C0006B78042B12D16B790A2B0FD1144B2E78A8
:1095D00001930133009302231A46A9193846FDF777
:1095E00081FA70B10E3416FA84F4A4B20B48FFF776
:1095F000BCFECDE7052BE3D129463846FDF74EFAF0
:1096000028B9084B1B68DB07C1D500BEBFE7AB78A4
:1096100073702B781C44A4B21D44D1E7A80B002022
:10962000AA0B0020F0ED00E038B50B461146127889
:1096300002F06002202A47D1244A8C881578A5427E
:1096400042D14C78203C032C3ED8DFE804F00214D1
:109650001731012B05D107231D4AFDF717FE012005
:1096600038BD032BFBD11B4B002BF8D01849002031
:10967000FEF744FEF3E7012BF1D1ECE7012B02D119
:10968000FDF7ECFDEBE7032BE9D14C881471E143C6
:1096900001F00101104800F049FB104B002BDED017
:1096A000C4F3400204F001010020FEF71DFED6E7DE
:1096B000012BE5D0032BD2D1094B002BCFD0498809
:1096C0000020AFF30080CAE70020C9E7A80B002004
:1096D000B00B0020FD820000C40B0020E9820000D6
:1096E000000000002DE9F0471C46374BDA788A422B
:1096F00080460F461D4607D09B788B4259D1AB78E8
:10970000BB4234D001245BE003F50A7103F1100081
:10971000A2B200F000FB2D4B2BB92D4BFBB92A4810
:10972000FFF723FEEBE795F905300133F5D005F29D
:10973000272606EB0409A6F2172A4E45EDD095F927
:10974000052016F8013F9A42F7D1504600F070FA12
:109750000028F2D195F90510AFF30080EDE71D4820
:1097600000F066FA0028DAD1AFF30080D7E71A4B91
:1097700013B10020AFF300800020FFF757FE002850
:10978000C0D1164800F044FA0028BBD1002CB9D053
:1097900014F03F06B6D1A9784046FDF7D7F9044644
:1097A0000028AFD033463246A9784046FDF7EAF9A3
:1097B00006E00B4B1C6814F0010401D000BE00242D
:1097C0002046BDE8F08700BFA80B00200000000085
:1097D00000000000B80B002000000000C40B0020B7
:1097E000F0ED00E0704770478B79012B0AD1CB79FF
:1097F000012B07D10B78CA185278212A04D1C85CF2
:10980000093070470020704709207047012973B55F
:10981000064614462AD1137803F01F05012D11D1F5
:1098200013F0600308D152780B2A0BD12146FDF7C3
:1098300015FD284602B070BD202B03D153781BB113
:10984000032B07D00025F4E71146FDF707FDFEF7CF
:1098500015FDEEE706220021684604F08CF8062389
:109860006A4621463046FDF711FDE2E70125E0E7B3
:109870000A4492B291424FEA400001D8824201DB91
:10988000121A92B21046704738B50D46D41A818824
:10989000A4B29A423CBF04EB4104A4B2BCB1A142C1
:1098A00005D2914294BF531A8B189BB243819942BF
:1098B0000AD9C2880168C2F30E0202FB03112846CE
:1098C00004F04EF8012038BD5B1A9BB2EFE720464A
:1098D000F9E7F7B50446900803460D464FF6FF76C4
:1098E000013B9BB2B3420ED112F0030201EB8001A7
:1098F00007D002A8002340F8043D04F031F8019B92
:10990000236003B0F0BD55F8047B2760E8E72DE93C
:10991000F3470F46BDF8281084885E1AB6B28B4212
:109920003CBF06EB4406B6B280466EB3B44206D2E4
:109930009C4294BF191BE11889B241812646964288
:1099400028BF16468C4223D9B8F80630D8F8005004
:10995000C3F30E03641A9AB2A4B202FB01559DF838
:109960002C10A6EB040914FB03FA19FB03F90129D7
:109970001FFA8AFA1FFA89F918D0A6420BD8724347
:109980002946384603F0ECFF304602B0BDE8F087C8
:10999000091B89B2D6E752462946384603F0E0FF54
:1099A0004A46D8F8001007EB0A00EBE7A64207D8B2
:1099B00016FB03F292B229463846FFF78AFFE3E727
:1099C0002AF00304A4B2224629463846FFF781FF55
:1099D0001AF0030A28D0CAF104039BB24B4505EBE9
:1099E000040102AC28BF4B460020A9EB030944F850
:1099F000040D1FFA89F90A5C0255421C92450CD1EC
:109A0000D8F8001020440B44994208D1019B3B60D8
:109A1000B9F1000FB8D04A46CEE71046EBE711F88F
:109A2000012B00F8012FEFE7D8F80010F0E7F7B5A9
:109A30009408234605464FF6FF76013B9BB2B3429E
:109A40000CD112F0030200EB840005D00B6802A9D0
:109A500041F8043D03F084FF03B0F0BD0F6845F802
:109A6000047BEAE72DE9F74F1446C2790589B0F87F
:109A700004800F4641899B46D3090646ADB289B2A0
:109A800015D18D4236BFC1EB4801691A491989B217
:109A9000414536BFA8EB0101002189B28C4228BFA5
:109AA0000C46002C50D1204603B0BDE8F08F444551
:109AB0000CD3BBF1000F06D1C288A4EB0804C2F39B
:109AC0000E0202FB04770D464446EAE78D424FEA58
:109AD000480036BF421A6A1A521992B22244824290
